:040000000BEF00F012
:100008005582FACF47F0FBCF48F02AED10F057EFB2
:0200180012F0E4
:1008000000C30809083D086B0834034D0069006304
:100810000072006F006300680069007000200054DF
:10082000006500630068006E006F006C006F006779
:10083000007900200049006E0063002E002E035353
:100840000069006D0070006C0065002000480049E0
:1008500000440020004400650076006900630065E4
:10086000002000440065006D006F000902290001AE
:100870000100C03209040000020300000009211138
:10088000010001221D000705810340000107050149
:10089000034000010600FF0901A1011901294015CB
:1008A0000026FF007508954081001901294091003C
:1008B000C01201000200000008D8043F000001013E
:1008C000020001040309040004012205D8A410D089
:1008D000040120511F0B0009D8A40AD00C8E030E6E
:1008E00004012119D8A402D0010E01D0000E206EFF
:1008F00004012251D8A41200040120511F0B020A46
:10090000D8A41200040124510F0B0009D8B412001E
:10091000040124510F0B3F6E020E3F601200200EA7
:100920002318D8A412000C8E040124BF1BD004018C
:1009300024510F0B3F6E3F50020D640EF324D96E0D
:10094000000EF420DA6EDECF43F0DDCF44F0040178
:1009500024510F0B3F6E3F50010D190EF324D96E39
:10096000000E1AD0040124510F0B3F6E3F50020DB0
:100970000F0EF324D96E000EF420DA6EDECF43F0B2
:10098000DDCF44F0040124510F0B3F6E3F50010DA9
:10099000170EF324D96E000EF420DA6EDF50426E8B
:1009A00042B002D0439401D04384040124BF0BD051
:1009B000040124510F0B3F6E3F50020D640EF324CF
:1009C000D96E000E0AD0040124510F0B3F6E3F5028
:1009D000020D0F0EF324D96E000EF420DA6E43C020
:1009E000DEFF44C0DDFF030E04012119D8A42ED080
:1009F00043C0D9FF44C0DAFFDFAE1BD0040124BFDF
:100A00000BD0040124510F0B3F6E3F50010D190E06
:100A1000F324D96E000E0AD0040124510F0B3F6E4F
:100A20003F50010D170EF324D96E000EF420DA6E3C
:100A3000DF8243C0D9FF44C0DAFF000EDB8443C02D
:100A4000D9FF44C0DAFF000EDB8E1200040E431AF9
:100A500043C0D9FF44C0DAFFDFAE1BD043C0D9FF8B
:100A600044C0DAFF7F0EDF1643C0D9FF44C0DAFF6F
:100A7000000EDB8C000E386E050E376E43C039F069
:100A800044C03AF0000E3C6E020E3B6EEBEC0FF0F1
:100A900006D043C0D9FF44C0DAFF000EDB8C040E41
:100AA000431A42B206D043C0D9FF44C0DAFFDFAEDA
:100AB00030D0040124BF0BD0040124510F0B3F6E32
:100AC0003F50010D190EF324D96E000E0AD0040117
:100AD00024510F0B3F6E3F50010D170EF324D96EBA
:100AE000000EF420DA6EDF9243C0D9FF44C0DAFF73
:100AF0003B0EDF16000E386E050E376E43C039F020
:100B000044C03AF0000E3C6E020E3B6EEBEC0FF070
:100B100006D043C0D9FF44C0DAFF3B0EDF16040104
:100B200024510F0B3F6E3F50010D700EF324406EA9
:100B30000F0EF420416E40C0D9FF41C0DAFFFE0E17
:100B4000DF16120000016A5100016B11D8B4B5D054
:100B50006AC0D9FF6BC0DAFF0001DFBE1200ADD062
:100B6000020E55EC11F0B7D001C515F0166A15C08C
:100B70007CF0010E00017C1700017C3BBD500001A0
:100B80007C19EF0B7C19BD6ED8901632153215C04A
:100B90007CF0010E00017C1700017C3B7C47BD50BE
:100BA00000017C19DF0B7C19BD6ED890163215320E
:100BB00015C0BEFF02C515F0166A15C07CF0010E07
:100BC00000017C1700017C3BBA5000017C19EF0B3F
:100BD0007C19BA6ED8901632153215C07CF0010E11
:100BE00000017C1700017C3B7C47BA5000017C1956
:100BF000DF0B7C19BA6ED8901632153215C0BBFFC8
:100C00006AD00001685100016911D8B407D068C0EA
:100C1000D9FF69C0DAFF0001DFBE5DD0810E05019A
:100C2000406F010EFCEC10F00009D8A402D0010EB8
:100C300001D0000E0501416F010E0001756F400EDD
:100C40000001766F050E0001776F400E0001786F8E
:100C5000010E40EC0CF02CD000016851000169112C
:100C6000D8B407D068C0D9FF69C0DAFF0001DFBE81
:100C700032D0000E91EC10F075C07DF076C07EF0A1
:100C8000370E0501406F7DC041F500017E51050121
:100C9000426F010E0001756F400E0001766F050E68
:100CA0000001776F400E0001786F010E40EC0CF0F0
:100CB00075C068F076C069F00ED005010051370AA2
:100CC000D8B4CAD7630AD8B44FD7D40AD8B448D74F
:100CD000010AD8B496D7000E0001756F000E00010E
:100CE000766F050E0001776F400E0001786F010EE0
:100CF00040EC0CF075C06AF076C06BF01200A09A60
:100D0000000E6A6E000E686E000E706E710E0001AD
:100D1000756F0F0E0001766F000E0001786F000EE8
:100D2000776F000E00017A6F010E796FDEEC11F023
:100D3000160E6F6E9F0E6B6E7B0E696E000E0001BD
:100D40007D6F070E00017D6501D010D000017D513F
:100D5000040D000EF324D96E040EF420DA6EDE6A60
:100D6000DE6ADE6ADD6A00017D2BEBD76D8C000E3A
:100D70006E6E6D986D9C6896000E0C6E000E046E83
:100D8000000E066E000E056E68B6F5D7010E000166
:100D9000706F010E0001716F000E00016E6F000E8A
:100DA00000016F6F000E216E000E00017D6F010EBD
:100DB00000017D6501D033D000017D51020D0F0E81
:100DC000F324D96E000EF420DA6E000EDE6E000EF3
:100DD000DD6E00017D51020D640EF324D96E000E0C
:100DE000F420DA6E000EDE6E000EDD6E00017D5125
:100DF000010D170EF324D96E000EF420DA6E000EEA
:100E0000DF6E00017D51010D190EF324D96E000E25
:100E1000F420DA6E000EDF6E00017D2BC8D7080EBD
:100E20000F6E040E106E160E706E040E0401036F2A
:100E3000200E026F080E0401016F040E0401006F02
:100E40000401008F000E286E000E0001606F000E7E
:100E5000616F000E626F000E636F000E0001726F13
:100E6000000E236E1200A09A000E6A6E000E686ECD
:100E7000000E706E710E2B6E0F0E2C6E000E2E6E0D
:100E8000000E2D6E000E306E010E2F6E41EC12F032
:100E9000160E6F6E9F0E6B6E7B0E696E000E336EBC
:100EA000070E336401D00ED03350040D000EF3242E
:100EB000D96E040EF420DA6EDE6ADE6ADE6ADD6A5E
:100EC000332AEED76D8C000E6E6E6D986D9C689611
:100ED000000E0C6E000E046E000E066E000E056E07
:100EE00068B6F5D7010E0001706F010E0001716F39
:100EF000000E00016E6F000E00016F6F000E216E7C
:100F0000000E336E010E336401D02ED03350020D2B
:100F10000F0EF324D96E000EF420DA6E000EDE6E92
:100F2000000EDD6E3350020D640EF324D96E000EF8
:100F3000F420DA6E000EDE6E000EDD6E3350010D11
:100F4000170EF324D96E000EF420DA6E000EDF6E59
:100F50003350010D190EF324D96E000EF420DA6E11
:100F6000000EDF6E332ACED7080E0F6E040E106E01
:100F7000160E706E040E0401036F200E026F080E31
:100F80000401016F040E0401006F0401008F000EC4
:100F9000286E000E0001606F000E616F000E626F20
:100FA000000E636F000E0001726F000E236E1200C0
:100FB0002304D8B46DBA06D0000E686E69806988C3
:100FC000020E236E68B469A403D06894F8EC11F0A3
:100FD0006DA202D0A19A120068B069A006D033ECCD
:100FE00007F0A08A040E236E689068B869A802D042
:100FF0002AEC12F068AC1AD069AC0ED0000E386E34
:10100000730E376E000E396E000E3A6E000E3C6E97
:10101000010E3B6EEBEC0FF0689C7DEC12F024505F
:10102000D8A424062450D8B413EC0DF068BA69AAE9
:1010300002D0BBEC10F068B269A20FD07F0E386E00
:101040003768000E396E000E3A6E000E3C6E010ECF
:101050003B6EEBEC0FF0000E6A6E040E236002D0C4
:10106000A19A120069A638D0000E466E030E46649F
:1010700001D032D068A630D06CCF2AF02A30E832C6
:10108000E8320F0B266E68962AB407D02650010D61
:10109000190EF324D96E000E06D02650010D170E3E
:1010A000F324D96E000EF420DA6EDF702650D8A437
:1010B00003D01FEC0FF00ED0000E386E720E376E9C
:1010C0002A0E396E000E3A6E000E3C6E000E3B6E1C
:1010D000EBEC0FF0462ACAD7A19A1200800E040149
:1010E0002019D8A41200C00E0C6E7CD0B10E096E6F
:1010F000080E0A6E000E0E6E120E0D6E1200040126
:101100002251D8A43ED004012251020D070EF3242F
:10111000F66E080EF420F76E0900F5CF09F00A000C
:10112000F5CF0AF0020E09242B6E000E0A202C6E59
:101130002BC0F6FF2CC0F7FFF86A070EF76403D048
:101140000800F55005D0F6CFE9FFF7CFEAFFEF50E2
:101150000D6E030E09242B6E000E0A202C6E2BC080
:10116000F6FF2CC0F7FFF86A070EF76403D00800FB
:10117000F55005D0F6CFE9FFF7CFEAFFEF500E6E3E
:101180001200000E0C6E1200030E0401226124D026
:1011900004012251020D010EF324F66E080EF42014
:1011A000F76E0900F5CF09F00A00F5CF0AF009C083
:1011B000F6FF0AC0F7FFF86A070EF76403D00800CD
:1011C000F55005D0F6CFE9FFF7CFEAFFEF502B6ED1
:1011D0002B500D6E0E6A1200000E0C6E1200000EE7
:1011E0000C6E120004012351010AD8B47FD7030A00
:1011F000D8B485D7010AD8B4C7D7F1D720EE01F00B
:101200001B50D9261C50DA22DF502C6E2C50055C66
:10121000000E0658D8A005C02CF02C50055E000E1C
:10122000065A000E2B6E11D02B50010D280EF32400
:10123000D96E040EF420DA6E01C0E1FF02C0E2FFB5
:10124000DFCFE7FF014A022A2B2A2C502B5CD8A0C3
:10125000EBD705500610D8B432D020EE01F01D5067
:10126000D9261E50DA22080EDF6E20EE02F01D5045
:10127000D9261E50DA22280EDE6E040EDD6E1BC04B
:10128000D9FF1CC0DAFFDFBC0DD01DC0D9FF1EC0C6
:10129000DAFF480EDF6E1DC0D9FF1EC0DAFF000E58
:1012A000DB8E12001DC0D9FF1EC0DAFF080EDF6EF4
:1012B0001DC0D9FF1EC0DAFF000EDB8E120020EE2B
:1012C00001F01D50D9261E50DA22080EDF6E20EEE6
:1012D00002F01D50D9261E50DA22200EDE6E040EBA
:1012E000DD6E1DC0D9FF1EC0DAFF040EDF6E1DC00B
:1012F000D9FF1EC0DAFF000EDB8E049E2250D8A458
:10130000120013EC0DF012000001776F77D0010E80
:1013100038EC11F0020E38EC11F0010E6AEC12F00C
:10132000000E90EC12F0000ED0EC12F0C680C692C7
:10133000C694C696C6988B9E8A92949E9392928AE1
:10134000C68ACB68000E0001796F786978C076F0A4
:10135000010E000176170001763BBD5000017619A1
:10136000EF0B7619BD6E0001D8907933783378C0D1
:1013700076F0010E000176170001763B7647BD50EE
:1013800000017619DF0B7619BD6E0001D890793314
:10139000783378C0BEFF000E0001796F786978C09D
:1013A00076F0010E000176170001763BBA5000017D
:1013B0007619EF0B7619BA6E0001D890793378332D
:1013C00078C076F0010E000176170001763B764773
:1013D000BA5000017619DF0B7619BA6E0001D89069
:1013E0007933783378C0BBFF94929494CA80CA82D0
:1013F000CA84BD86BD84BA86BA84120000017751C2
:10140000000AD8B484D7010AD8B41200030A120023
:101410006D980CBE3BD004AE0ED0020E256E0001BE
:101420006F51D8B487EC0EF0000E0001716F000E02
:101430000001706F120020EE01F01D50D9261E50E1
:10144000DA22080EDF6E20EE02F01D50D9261E5063
:10145000DA22200EDE6E040EDD6E1DC0D9FF1EC026
:10146000DAFF0C0EDF6E1DC0D9FF1EC0DAFF000EC2
:10147000DB8E0FC0D9FF10C0DAFF040EDF6E0FC085
:10148000D9FF10C0DAFF000EDB8E1200040120AF7E
:1014900013D0010E256E00016E51D8B487EC0EF00A
:1014A000000E0001716F000E0001706F2250D8A471
:1014B000120013EC0DF01200020E256E20EE01F06A
:1014C0001D50D9261E50DA22080EDF6E20EE02F0E3
:1014D0001D50D9261E50DA22200EDE6E040EDD6E5F
:1014E0001DC0D9FF1EC0DAFF040EDF6E1DC0D9FF7C
:1014F0001EC0DAFF000EDB8E000E0001716F000EC1
:101500000001706F2250D8A4120013EC0DF01200ED
:101510002D6E65D0010E72EC11F0020E72EC11F01E
:10152000010EA1EC12F0000EC2EC12F0000EDBEC8A
:1015300012F0C680C692C694C696C6988B9E8A92B2
:10154000949E9392928AC68ACB68000E2F6E2E6864
:101550002EC02CF0010E2C162C3ABD502C18EF0B7F
:101560002C18BD6ED8902F322E322EC02CF0010ECA
:101570002C162C3A2C46BD502C18DF0B2C18BD6EA7
:10158000D8902F322E322EC0BEFF000E2F6E2E6846
:101590002EC02CF0010E2C162C3ABA502C18EF0B42
:1015A0002C18BA6ED8902F322E322EC02CF0010E8D
:1015B0002C162C3A2C46BA502C18DF0B2C18BA6E6D
:1015C000D8902F322E322EC0BBFF94929494CA80B2
:1015D000CA82CA84BD86BD84BA86BA8412002D50E0
:1015E000000AD8B497D7010AD8B41200030A12002F
:1015F0000C8E710E2B6E0F0E2C6E000E2E6E000ECA
:101600002D6E000E306E010E2F6E41EC12F0000EAA
:101610002B6E040E2C6E000E2E6E000E2D6E000E24
:10162000306E200E2F6E41EC12F06D8C000E3F6E6E
:10163000010E3F6401D016D03F50010D170EF32468
:10164000D96E000EF420DA6E000EDF6E3F50010DF1
:10165000190EF324D96E000EF420DA6E000EDF6E40
:101660003F2AE6D7290E2B6E000E2C6E000E2E6E32
:10167000000E2D6E000E306E010E2F6E41EC12F03A
:101680006D9C080E0F6E040E106E000E1B6E040E85
:101690001C6E1BC01DF01CC01EF022C428F0285078
:1016A000D8A403D0100E236E1200000E386E010E67
:1016B000376E280E396E000E3A6E000E3C6E010E2B
:1016C0003B6EEBEC0FF0200E236E1200040120396C
:1016D000E832030B0009D8A4120043D00C8E080E88
:1016E000236E12006EEC08F01200F8EC0AF0120003
:1016F000280E096E000E0A6E0C80010E0D6E0C8E07
:10170000120030EC0EF0120064EC04F01200040140
:101710002451010D290EF324096E000EF4200A6EE7
:101720000C80010E0D6E0C8E12000C8E04012451E3
:10173000010D290EF324D96E000EF420DA6E22C4B6
:10174000DFFF1200000E386E020E376E000E396E8B
:10175000000E3A6E000E3C6E000E3B6EEBEC0FF08E
:10176000120004012151000AD8B4CBD7010AD8B421
:10177000CBD7020AD8B4C8D7060AD8B4AFD7030A61
:10178000D8B4B0D7010AD8B4DDD70F0AD8B4B0D7CF
:10179000010AD8B4AAD7030AD8B4B9D7010AD8B471
:1017A000C4D7070A1200040120511F0BE806D8A471
:1017B000120004012451D8A41200060E04012119BC
:1017C000D8B418D020D02804D8A41DD07D0E096E1E
:1017D000080E0A6E000E0E6E090E0AD0C00E0C6EB8
:1017E00012D0940E096E080E0A6E000E0E6E1D0EBB
:1017F0000D6EF4D704012351210AD8B4E4D7030AAB
:10180000D8B4EFD7010A04012039E832030BE80607
:10181000D8A4120020D0740E096E000E0A6E000EBD
:101820000E6E010E0D6EC10E0C6E1200800E0C6E4F
:1018300023C474F01200730E096E000E0A6E000EBF
:101840000E6E010E0D6E810E0C6E1200800E0C6E6F
:1018500022C473F0120004012151010AD8B412000D
:10186000030AD8B4D8D7010AD8B4E5D70A0AD8B43D
:101870001200030AD8B4DAD7010AD8A41200E6D7B6
:101880000001796F000175510001D8B408D0000142
:101890007951020D0F0EF324D96E000E07D000010E
:1018A0007951020D640EF324D96E000EF420DA6E25
:1018B000DECF7AF0DDCF7BF000017A5100017B11A1
:1018C000D8A407D0000E0001756F000E0001766FDE
:1018D0001200000120EE02F07A51D9267B51DA2263
:1018E00076C0DEFF77C0DDFF000120EE01F07A5107
:1018F000D9267B51DA2278C0DFFF7AC0D9FF7BC0BE
:10190000DAFF400EDF167AC0D9FF7BC0DAFF000E87
:10191000DB867AC0D9FF7BC0DAFF000EDB8E0001C8
:1019200075510001D8B408D000017951020D0F0E95
:10193000F324D96E000E07D000017951020D640E18
:10194000F324D96E000EF420DA6E040EDF1A7AC08A
:1019500075F07BC076F01200080E2B6E0E5010E171
:10196000080E0D5CD8B00CD00DC02BF02750D8A4B9
:1019700002D0010E04D02704D8A402D0020E276E94
:101980002B500D5E000E0E5A20EE01F00F50D9269E
:101990001050DA222BC0DFFF280E00016C6F040EFE
:1019A00000016D6F0CA01CD03AD009C0F6FF0AC030
:1019B000F7FFF86A6CC0D9FF6DC0DAFF070EF76455
:1019C00003D00800F55005D0F6CFE9FFF7CFEAFFC6
:1019D000EF50DF6E094A0A2A00016C4B6D2B2B0673
:1019E0002B50D8B41200E1D709C0F6FF0AC0F7FFA8
:1019F000F86A6CC0D9FF6DC0DAFF070EF76403D038
:101A00000800F55005D0F6CFE9FFF7CFEAFFEF5019
:101A1000DF6E094A0A2A00016C4B6D2B2B062B50F6
:101A2000D8B41200E1D700017051D8A41200010E01
:101A30000001706F00017151D8A41200010E000165
:101A4000716F020E2518D8A415D020EE01F00F50AA
:101A5000D9261050DA22000EDF6E0FC0D9FF10C059
:101A6000DAFF480EDF6E0FC0D9FF10C0DAFF000E9C
:101A7000DB8E12002504D8A41200000E1F6E20EE8B
:101A800001F01B50D9261C50DA22080EDF6E20EE22
:101A900002F01B50D9261C50DA22200EDE6E040EF6
:101AA000DD6E1BC0D9FF1CC0DAFF040EDF6E1BC049
:101AB000D9FF1CC0DAFF000EDB8E010E1F6E20EE78
:101AC00001F01D50D9261E50DA22080EDF6E20EEDE
:101AD00002F01D50D9261E50DA22200EDE6E040EB2
:101AE000DD6E1DC0D9FF1EC0DAFF800EDF6E120052
:101AF0002F6E2B50D8B407D02F50020D0F0EF324A9
:101B0000D96E000E06D02F50020D640EF324D96E4C
:101B1000000EF420DA6EDECF30F0DDCF31F0305041
:101B20003110D8A405D0000E2B6E000E2C6E1200C2
:101B300020EE02F03050D9263150DA222CC0DEFFE0
:101B40002DC0DDFF20EE01F03050D9263150DA22D1
:101B50002EC0DFFF30C0D9FF31C0DAFF400EDF16E4
:101B600030C0D9FF31C0DAFF000EDB8630C0D9FFAC
:101B700031C0DAFF000EDB8E2B50D8B407D02F50C7
:101B8000020D0F0EF324D96E000E06D02F50020D59
:101B9000640EF324D96E000EF420DA6E040EDF1A00
:101BA00030C02BF031C02CF012000FC0D9FF10C094
:101BB000DAFF000EDFBC010E2C6E040E0F1A080EA9
:101BC0002318D8A40BD0040122517F0B6E6E6E50E7
:101BD000D8B402D0100E01D0040E236E2504D8A470
:101BE0003AD020EE02F00F50D9261050DA22280EFB
:101BF000DE6E040EDD6EACEC0CF0020E2718D8A4DD
:101C00000DD00FC0D9FF10C0DAFF040EDF6E0FC079
:101C1000D9FF10C0DAFF000EDB8E12002C50D8A4C2
:101C20000DD00FC0D9FF10C0DAFF480EDF6E0FC015
:101C3000D9FF10C0DAFF000EDB8E12000FC0D9FFF3
:101C400010C0DAFF080EDF6E0FC0D9FF10C0DAFF38
:101C5000000EDB8E120004BE049E000E256E1200E4
:101C6000000E0401286F000E0401296F3AD00C8E7B
:101C7000040128812004D8A440D0040128833DD049
:101C80000C8E3BD00C8E040124BF0BD004012451D8
:101C90000F0B2B6E2B50020D640EF324D96E000E29
:101CA0000AD0040124510F0B2B6E2B50020D0F0E86
:101CB000F324D96E000EF420DA6EDECF2CF0DDCFE7
:101CC0002DF02CC0D9FF2DC0DAFFDFAE16D02CC00E
:101CD000D9FF2DC0DAFFDFA410D0010E0401286F58
:101CE0000CD0040120511F0B000AD8B4C0D7010A40
:101CF000D8B4C6D7030AD8B4C5D70CAE1200280E84
:101D0000096E040E0A6E0C80020E0D6E1200000E9B
:101D100000016E6F000E00016F6F020E2518D8A42F
:101D20001FD020EE01F01D50D9261E50DA22080ED9
:101D3000DF6E20EE02F01D50D9261E50DA22280E4A
:101D4000DE6E040EDD6E1DC0D9FF1EC0DAFF480E28
:101D5000DF6E1DC0D9FF1EC0DAFF000EDB8E120041
:101D60000D500401265D0E5004012759D8B004D04F
:101D700026C40DF027C40EF0ACEC0CF020EE02F0FF
:101D80000F50D9261050DA22280EDE6E040EDD6EBA
:101D90000FC0D9FF10C0DAFF480EDF6E0FC0D9FFA9
:101DA00010C0DAFF000EDB8E1200306E000E316EB6
:101DB000040E326E2B502C6E2D6AD8902C362D3698
:101DC00030502E6E2F6AD8902E362F36D8902E3661
:101DD0002F362C502E262D502F22D8902E362F36CF
:101DE000D8902E362F362E5031262F50322231C029
:101DF000D9FF32C0DAFFDF9E2B50D8A407D0305075
:101E0000020D640EF324D96E000E06D03050020D80
:101E10000F0EF324D96E000EF420DA6E31C0DEFF0F
:101E200032C0DDFF31C0D9FF32C0DAFFDF9C20EEC7
:101E300004F03150D9263250DA22DF8C12002D0EF8
:101E4000246E2AC045F0FD0E4516D8A438D02AC00D
:101E500045F0D89045323F0E45164550040D000E12
:101E6000F3241B6E040EF4201C6E1BC01DF01CC05E
:101E70001EF0040E1D1A1BC0D9FF1CC0DAFFDF3094
:101E8000E8320F0B0D0AD8A417D0200E2B6E040ECB
:101E90002C6E20EE02F01B50D9261C50DA22DECF29
:101EA0002DF0DDCF2EF0000E306E080E2F6EDCEC24
:101EB00010F067EC0FF0120063EC10F012002A50E3
:101EC000FD0B040AD8A41200D5EC0DF01200000E90
:101ED000276E000E226E000E00016E6F000E0001D4
:101EE0006F6F000E1F6E000E256E0FC0D9FF10C061
:101EF000DAFF7F0EDF16040E0F1A0FC0D9FF10C0D5
:101F0000DAFF7F0EDF16040E0F1A1DC0D9FF1EC0A8
:101F1000DAFF7F0EDF16000E0C6E000E0E6E000E46
:101F20000D6E000E046E000E066E000E056E66EC61
:101F30000BF0000E386E030E376E000E396E000E79
:101F40003A6E000E3C6E000E3B6EEBEC0FF008ECB0
:101F50000AF012002104D8A436D0010EA8EC11F02A
:101F6000120013041410D8A404D0010E8DEC11F04B
:101F70002FD04B0E13181410D8A404D0010EA8ECC7
:101F800011F026D0145004E1970E135CD8A020D095
:101F9000000E146E000E136E1BD013041410D8A480
:101FA00004D0010E8DEC11F013D0320E1318141062
:101FB000D8A404D0010EA8EC11F00AD0B70E135C1F
:101FC000030E1458E3D72350200AD8B4CAD7E5D754
:101FD000134A142A120015D0AAEC0FF01200AAEC32
:101FE0000FF0010E88EC0AF01200AAEC0FF0020EBE
:101FF00088EC0AF01200C3EC11F01200D3EC0BF0E5
:10200000120037C03DF038C03EF03E50000AD8B450
:1020100004D07F0AD8A412001AD03D50010AD8B4C7
:10202000EAD7030AD8B41200010AD8B4E7D7060ADF
:10203000D8B41200770AD8B41200010AD8B4CCD7A9
:10204000070AD8B4D2D7010AD8A41200C8D73D5085
:10205000FF0A12000600E9CF49F0EACF4AF0E1CFCB
:102060004BF0E2CF4CF0D9CF4DF0DACF4EF0F3CFBA
:102070004FF0F4CF50F0F6CF51F0F7CF52F0F8CF49
:1020800053F0F5CF54F0D8EC07F054C0F5FF53C02F
:10209000F8FF52C0F7FF51C0F6FF50C0F4FF4FC029
:1020A000F3FF4EC0DAFF4DC0D9FF4CC0E2FF4BC07A
:1020B000E1FF4AC0EAFF49C0E9FF48C0FBFF47C053
:1020C000FAFF55921100020E2518D8A403D0FEEC99
:1020D00008F01200000E256E1F50D8A41FD020EE6D
:1020E00001F01D50D9261E50DA22080EDF6E20EEB8
:1020F00002F01D50D9261E50DA22200EDE6E040E8C
:10210000DD6E1DC0D9FF1EC0DAFF0C0EDF6E1DC0D4
:10211000D9FF1EC0DAFF000EDB8E1200000E1F6E0C
:10212000120000017A6F04D000017569766912000F
:1021300000017A51000AD8A4F7D77AC077F00001DD
:1021400077477747C25000017719C30B7719C26EE2
:10215000C282C2B2FED7C4CF78F00001796B000111
:102160007851796F786BC3500001781378C075F09F
:1021700079C076F0120070A01DD01BC0D9FF1CC022
:10218000DAFF800EDE18D8A414D00FC0D9FF10C01B
:10219000DAFF840EDE18D8A40CD01BC0D9FF1CC0F7
:1021A000DAFF0C0EDF6E1BC0D9FF1CC0DAFF000E79
:1021B000DB8E7090689A12002DC033F02EC034F080
:1021C0002BC031F02CC032F00ED033C0D9FF34C058
:1021D000DAFF31C0E1FF32C0E2FFDFCFE7FF334A71
:1021E000342A314A322A2F06D8A030062F28EDE1B2
:1021F0003028D8B41200E9D70001756F0ED081B82D
:1022000002D0010E1200000E120081BA02D0010E9F
:102210001200000E1200000E120000017551000A9B
:10222000D8B4F9D7010AD8B4EAD7030AD8B4EDD79D
:10223000000E1200366E33A405D0000E2B6E365001
:10224000D5EC0EF033A205D0010E2B6E3650D5EC36
:102250000EF03650010D700EF324346E0F0EF42084
:10226000356E34C0D9FF35C0DAFF33C0DFFF12004E
:102270000001756F08D0939012009394120093940C
:1022800012009396120000017551000AD8B4120092
:10229000010AD8B4F0D7030AD8B4EFD7010AD8B4EA
:1022A000EED7070AD8A41200ECD70001756F08D04A
:1022B0008A7012008A7412008A7412008A761200E0
:1022C00000017551000AD8B41200010AD8B4F0D741
:1022D000030AD8B4EFD7010AD8B4EED7070AD8A4B6
:1022E0001200ECD72B6E08D093901200939412003A
:1022F00093941200939612002B50000AD8B4120047
:10230000010AD8B4F1D7030AD8B4F0D7010AD8B477
:10231000EFD7070AD8A41200EDD72B6E08D08A8019
:1023200012008A8412008A8412008A8612002B50BE
:10233000000AD8B41200010AD8B4F1D7030AD8B4FD
:10234000F0D7010AD8B4EFD7070AD8A41200EDD706
:102350002B6E08D08A9012008A9412008A94120080
:102360008A9612002B50000AD8B41200010AD8B481
:10237000F1D7030AD8B4F0D7010AD8B4EFD7070AC7
:10238000D8A41200EDD7000E0001686F000E000106
:10239000696F1E0E336E010E1AEC11F0000E2B6EDB
:1023A000000E2C6E050E2D6E400E2E6E010E78EC7A
:1023B0000DF02BC06AF02CC06BF0120075C07BF0E2
:1023C00076C07CF009D07BC0D9FF7CC0DAFF77C033
:1023D000DFFF00017B4B7C2B00017907D8A07A0737
:1023E00000017929F0E100017A29D8B41200EBD775
:1023F000000E216E000E386E740E376E000E396EB0
:10240000000E3A6E000E3C6E000E3B6EEBEC0FF0D1
:102410006D92699401D0689468B4FDD7000E0001F4
:10242000726F12002350D8A41200000E6D6E000EC1
:10243000696E160E6F6E9F0E6B6E7B0E696ED08E80
:10244000A28AA08AF28E01D06D866DA6FDD7010EFC
:10245000236E1200698468986D82010E216E000E51
:102460000001726F000E386E750E376E000E396EF9
:10247000000E3A6E000E3C6E000E3B6EEBEC0FF061
:1024800012002BC031F02CC032F008D031C0D9FF7F
:1024900032C0DAFF2DC0DFFF314A322A2F06D8A022
:1024A00030062F28F3E13028D8B41200EFD700EE21
:1024B00060F0150EEE6AE806FDE100EE01F02A0E6E
:1024C000EE6AE806FDE155905592000EF86E0001A7
:1024D000B2EF12F00001756F04D093881200938A56
:1024E000120000017551000AD8B41200010AD8B4D4
:1024F000F4D7030AD8A41200F2D7010E0001602716
:10250000000E6123622363232150D8A4120000012E
:10251000722B00017251D8A41200000172691200DE
:102520000001756F000175510001D8A41200010E61
:10253000C26EC150F00B0E09C16E3C0EC06EC08E53
:1025400012002B6E04D093881200938A12002B5035
:10255000000AD8B41200010AD8B4F5D7030AD8A4E7
:102560001200F3D7000E84EC09F07FEC06F012ECB9
:1025700012F0200E236001D0FCD76DB2FAD7A2EC86
:1025800005F0F7D72B6E2B50D8A41200010EC26EA7
:10259000C150F00B0E09C16E3C0EC06EC08E120011
:1025A0000001756F02D09280120000017551000A7F
:1025B000D8A41200F8D72B6E02D0928012002B50B4
:0825C000000AD8A41200F9D7AB
:020000040020DA
:08000000FFFFFFFFFFFFFFFF00
:020000040030CA
:0E00000020023F1EFF8181FF0FC00FE00F4066
:00000001FF
