:040000000BEF00F012
:100008001382FACF01F0FBCF02F050ED00F0CFEFF2
:1000180000F0020EA2EC00F0820E106EDE0EE82E4A
:10002800FED7102EFCD7820E106EDE0EE82EFED7FD
:10003800102EFCD7820E106EDE0EE82EFED7102E84
:10004800FCD7820E106EDE0EE82EFED7102EFCD7DF
:10005800820E106EDE0EE82EFED7102EFCD7820E12
:10006800106EDE0EE82EFED7102EFCD7820E106E14
:10007800DE0EE82EFED7102EFCD7820E106EDE0E96
:10008800E82EFED7102EFCD7820E106EDE0EE82E5C
:10009800FED7102EFCD712000600E9CF03F0EACFF6
:1000A80004F0E1CF05F0E2CF06F0D9CF07F0DACFC0
:1000B80008F0F3CF09F0F4CF0AF0F6CF0BF0F7CF42
:1000C8000CF0F8CF0DF0F5CF0EF00EC0F5FF0DC017
:1000D800F8FF0CC0F7FF0BC0F6FF0AC0F4FF09C019
:1000E800F3FF08C0DAFF07C0D9FF06C0E2FF05C06A
:1000F800E1FF04C0EAFF03C0E9FF02C0FBFF01C043
:10010800FAFF139211000F6E08D093901200939487
:10011800120093941200939612000F50000AD8B45C
:100128001200010AD8B4F1D7030AD8B4F0D7010AEB
:10013800D8B4EFD7070AD8A41200EDD70F6E08D0AD
:100148008A7012008A7412008A7412008A76120069
:100158000F50000AD8B41200010AD8B4F1D7030A24
:10016800D8B4F0D7010AD8B4EFD7070AD8A4120038
:10017800EDD7010E87EC00F0020E87EC00F0C68088
:10018800C692C684C696C6988B9E8A92949E93827F
:10019800928AC68A1200126A116A13901392000E8C
:1001A800F86E0001D8EF00F0BDEC00F00DEC00F0A7
:0201B800FDD771
:020000040020DA
:08000000FFFFFFFFFFFFFFFF00
:020000040030CA
:0E00000020023F1EFF8181FF0FC00FE00F4066
:00000001FF
