:040000000BEF00F012
:100008005682FACF48F0FBCF49F0B3ED0EF09EEFE1
:0200180011F0E5
:1008000000C30809083D086B0834034D0069006304
:100810000072006F006300680069007000200054DF
:10082000006500630068006E006F006C006F006779
:10083000007900200049006E0063002E002E035353
:100840000069006D0070006C0065002000480049E0
:1008500000440020004400650076006900630065E4
:10086000002000440065006D006F000902290001AE
:100870000100C03209040000020300000009211138
:10088000010001221D000705810340000107050149
:10089000034000010600FF0901A1011901294015CB
:1008A0000026FF007508954081001901294091003C
:1008B000C01201000200000008D8043F000200013D
:1008C000020001040309040004012205D8A410D089
:1008D000040120511F0B0009D8A40AD00C8E030E6E
:1008E00004012119D8A402D0010E01D0000E1C6E03
:1008F00004012251D8A41200040120511F0B020A46
:10090000D8A41200040124510F0B0009D8B412001E
:10091000040124510F0B406E020E40601200200EA5
:100920002118D8A412000C8E040124BF1BD004018E
:1009300024510F0B406E4050020D640EF324D96E0B
:10094000000EF420DA6EDECF44F0DDCF45F0040176
:1009500024510F0B406E4050010D150EF324D96E3B
:10096000000E1AD0040124510F0B406E4050020DAE
:100970000F0EF324D96E000EF420DA6EDECF44F0B1
:10098000DDCF45F0040124510F0B406E4050010DA6
:10099000130EF324D96E000EF420DA6EDF50436E8E
:1009A00043B002D0449401D04484040124BF0BD04E
:1009B000040124510F0B406E4050020D640EF324CD
:1009C000D96E000E0AD0040124510F0B406E405026
:1009D000020D0F0EF324D96E000EF420DA6E44C01F
:1009E000DEFF45C0DDFF030E04012119D8A42ED07F
:1009F00044C0D9FF45C0DAFFDFAE1BD0040124BFDD
:100A00000BD0040124510F0B406E4050010D150E08
:100A1000F324D96E000E0AD0040124510F0B406E4E
:100A20004050010D130EF324D96E000EF420DA6E3F
:100A3000DF8244C0D9FF45C0DAFF000EDB8444C02A
:100A4000D9FF45C0DAFF000EDB8E1200040E441AF7
:100A500044C0D9FF45C0DAFFDFAE1BD044C0D9FF88
:100A600045C0DAFF7F0EDF1644C0D9FF45C0DAFF6C
:100A7000000EDB8C000E396E050E386E44C03AF065
:100A800045C03BF0000E3D6E020E3C6EECEC0EF0ED
:100A900006D044C0D9FF45C0DAFF000EDB8C040E3F
:100AA000441A43B206D044C0D9FF45C0DAFFDFAED6
:100AB00030D0040124BF0BD0040124510F0B406E31
:100AC0004050010D150EF324D96E000E0AD004011A
:100AD00024510F0B406E4050010D130EF324D96EBC
:100AE000000EF420DA6EDF9244C0D9FF45C0DAFF71
:100AF0003B0EDF16000E396E050E386E44C03AF01C
:100B000045C03BF0000E3D6E020E3C6EECEC0EF06C
:100B100006D044C0D9FF45C0DAFF3B0EDF16040102
:100B200024510F0B406E4050010D700EF324416EA6
:100B30000F0EF420426E41C0D9FF42C0DAFFFE0E14
:100B4000DF161200A09A000E6A6E000E686E000E8C
:100B5000706E710E0001806F0F0E0001816F000E2C
:100B60000001836F000E826F000E0001856F010E81
:100B7000846FE3EC10F0160E6F6E9F0E6B6E7B0EA3
:100B8000696E000E0001886F070E0001886501D0B4
:100B900010D000018851040D000EF324D96E040E0C
:100BA000F420DA6EDE6ADE6ADE6ADD6A0001882B16
:100BB000EBD76D8C000E6E6E6D986D9C6896000E76
:100BC0000C6E000E046E000E066E000E056E68B60A
:100BD000F5D7010E226E010E236E000E1E6E000E62
:100BE0001F6E000E1D6E000E0001886F010E0001C9
:100BF000886501D033D000018851020D0F0EF32417
:100C0000D96E000EF420DA6E000EDE6E000EDD6E80
:100C100000018851020D640EF324D96E000EF420F9
:100C2000DA6E000EDE6E000EDD6E00018851010DE1
:100C3000130EF324D96E000EF420DA6E000EDF6E70
:100C400000018851010D150EF324D96E000EF42019
:100C5000DA6E000EDF6E0001882BC8D7080E0F6E0B
:100C6000040E106E160E706E040E0401036F200E3B
:100C7000026F080E0401016F040E0401006F0401ED
:100C8000008F000E296E000E0001606F000E616F74
:100C9000000E626F000E636F000E256E000E216E57
:100CA0001200A09A000E6A6E000E686E000E706E42
:100CB000710E2C6E0F0E2D6E000E2F6E000E2E6E0E
:100CC000000E316E010E306E74EC11F0160E6F6E68
:100CD0009F0E6B6E7B0E696E000E346E070E3464D1
:100CE00001D00ED03450040D000EF324D96E040E42
:100CF000F420DA6EDE6ADE6ADE6ADD6A342AEED756
:100D00006D8C000E6E6E6D986D9C6896000E0C6E6C
:100D1000000E046E000E066E000E056E68B6F5D766
:100D2000010E226E010E236E000E1E6E000E1F6E4F
:100D3000000E1D6E000E346E010E346401D02ED0F4
:100D40003450020D0F0EF324D96E000EF420DA6E2B
:100D5000000EDE6E000EDD6E3450020D640EF324C4
:100D6000D96E000EF420DA6E000EDE6E000EDD6E1F
:100D70003450010D130EF324D96E000EF420DA6EF8
:100D8000000EDF6E3450010D150EF324D96E000EE7
:100D9000F420DA6E000EDF6E342ACED7080E0F6E06
:100DA000040E106E160E706E040E0401036F200EFA
:100DB000026F080E0401016F040E0401006F0401AC
:100DC000008F000E296E000E0001606F000E616F33
:100DD000000E626F000E636F000E256E000E216E16
:100DE00012002104D8B46DBA06D0000E686E698076
:100DF0006988020E216E68B469A403D0689416EC69
:100E000011F06DA202D0A19A120068B069A006D0BC
:100E100051EC06F0A08A040E216E689068B869A8AB
:100E200002D05EEC11F068AC1AD069AC0ED0000EA6
:100E3000396E730E386E000E3A6E000E3B6E000E69
:100E40003D6E010E3C6EECEC0EF0689CC3EC11F0B4
:100E50002450D8A424062450D8B49CEC0BF068BAD3
:100E600069AA02D02DEC10F068B269A20FD07F0EF3
:100E7000396E3868000E3A6E000E3B6E000E3D6E05
:100E8000010E3C6EECEC0EF0000E6A6E040E21605A
:100E900002D0A19A120069A638D0000E476E030E48
:100EA000476401D032D068A630D06CCF2BF02B3005
:100EB000E832E8320F0B276E68962BB407D0275024
:100EC000010D150EF324D96E000E06D02750010D2A
:100ED000130EF324D96E000EF420DA6EDF70275063
:100EE000D8A403D0EDEC0DF00ED0000E396E720ECA
:100EF000386E2B0E3A6E000E3B6E000E3D6E000EED
:100F00003C6EECEC0EF0472ACAD7A19A1200800E74
:100F100004012019D8A41200C00E0C6E7CD0B10EB2
:100F2000096E080E0A6E000E0E6E120E0D6E120085
:100F300004012251D8A43ED004012251020D070E13
:100F4000F324F66E080EF420F76E0900F5CF09F0D1
:100F50000A00F5CF0AF0020E09242C6E000E0A20BA
:100F60002D6E2CC0F6FF2DC0F7FFF86A070EF76450
:100F700003D00800F55005D0F6CFE9FFF7CFEAFF20
:100F8000EF500D6E030E09242C6E000E0A202D6EFC
:100F90002CC0F6FF2DC0F7FFF86A070EF76403D0E8
:100FA0000800F55005D0F6CFE9FFF7CFEAFFEF5084
:100FB0000E6E1200000E0C6E1200030E0401226170
:100FC00024D004012251020D010EF324F66E080E06
:100FD000F420F76E0900F5CF09F00A00F5CF0AF00A
:100FE00009C0F6FF0AC0F7FFF86A070EF76403D0DE
:100FF0000800F55005D0F6CFE9FFF7CFEAFFEF5034
:101000002C6E2C500D6E0E6A1200000E0C6E12002B
:10101000000E0C6E120004012351010AD8B47FD7D0
:10102000030AD8B485D7010AD8B4C7D7F1D720EEC0
:1010300001F01750D9261850DA22DF502D6E2D50AE
:10104000055C000E0658D8A005C02DF02D50055E99
:10105000000E065A000E2C6E11D02C50010D280ED9
:10106000F324D96E040EF420DA6E01C0E1FF02C051
:10107000E2FFDFCFE7FF014A022A2C2A2D502C5C29
:10108000D8A0EBD705500610D8B432D020EE01F02E
:101090001950D9261A50DA22080EDF6E20EE02F01F
:1010A0001950D9261A50DA22280EDE6E040EDD6E93
:1010B00017C0D9FF18C0DAFFDFBC0DD019C0D9FFA7
:1010C0001AC0DAFF480EDF6E19C0D9FF1AC0DAFF66
:1010D000000EDB8E120019C0D9FF1AC0DAFF080E0D
:1010E000DF6E19C0D9FF1AC0DAFF000EDB8E1200C6
:1010F00020EE01F01950D9261A50DA22080EDF6EC0
:1011000020EE02F01950D9261A50DA22200EDE6E97
:10111000040EDD6E19C0D9FF1AC0DAFF040EDF6EAF
:1011200019C0D9FF1AC0DAFF000EDB8E049E2050D2
:10113000D8A412009CEC0BF012006D980CBE38D0B5
:1011400004AE0BD0020E266E1F50D8B457EC0DF033
:10115000000E236E000E226E120020EE01F01950D8
:10116000D9261A50DA22080EDF6E20EE02F019504E
:10117000D9261A50DA22200EDE6E040EDD6E19C05A
:10118000D9FF1AC0DAFF0C0EDF6E19C0D9FF1AC0E2
:10119000DAFF000EDB8E0FC0D9FF10C0DAFF040E9D
:1011A000DF6E0FC0D9FF10C0DAFF000EDB8E120019
:1011B000040120AF10D0010E266E1E50D8B457EC9B
:1011C0000DF0000E236E000E226E2050D8A41200E7
:1011D0009CEC0BF01200020E266E20EE01F019506E
:1011E000D9261A50DA22080EDF6E20EE02F01950CE
:1011F000D9261A50DA22200EDE6E040EDD6E19C0DA
:10120000D9FF1AC0DAFF040EDF6E19C0D9FF1AC069
:10121000DAFF000EDB8E000E236E000E226E2050D1
:10122000D8A412009CEC0BF012000C8E710E2C6EE8
:101230000F0E2D6E000E2F6E000E2E6E000E316EF4
:10124000010E306E74EC11F0000E2C6E040E2D6E3B
:10125000000E2F6E000E2E6E000E316E200E306EC0
:1012600074EC11F06D8C000E406E010E406401D0E4
:1012700016D04050010D130EF324D96E000EF42049
:10128000DA6E000EDF6E4050010D150EF324D96E9C
:10129000000EF420DA6E000EDF6E402AE6D72A0E2A
:1012A0002C6E000E2D6E000E2F6E000E2E6E000E98
:1012B000316E010E306E74EC11F06D9C080E0F6EE5
:1012C000040E106E000E176E040E186E17C019F083
:1012D00018C01AF022C429F02950D8A403D0100E47
:1012E000216E1200000E396E010E386E290E3A6E14
:1012F000000E3B6E000E3D6E010E3C6EECEC0EF0EF
:10130000200E216E120004012039E832030B00097F
:10131000D8A4120043D00C8E080E216E120087EC68
:1013200007F0120015EC09F01200290E096E000EEC
:101330000A6E0C80010E0D6E0C8E1200B5EC0CF0D6
:10134000120064EC04F0120004012451010D2A0E75
:10135000F324096E000EF4200A6E0C80010E0D6E4F
:101360000C8E12000C8E04012451010D2A0EF32460
:10137000D96E000EF420DA6E22C4DFFF1200000ED8
:10138000396E020E386E000E3A6E000E3B6E000E85
:101390003D6E000E3C6EECEC0EF01200040121518B
:1013A000000AD8B4CBD7010AD8B4CBD7020AD8B434
:1013B000C8D7060AD8B4AFD7030AD8B4B0D7010A41
:1013C000D8B4DDD70F0AD8B4B0D7010AD8B4AAD799
:1013D000030AD8B4B9D7010AD8B4C4D7070A12008F
:1013E000040120511F0BE806D8A412000401245167
:1013F000D8A41200060E04012119D8B418D020D0A8
:101400002904D8A41DD07D0E096E080E0A6E000EA8
:101410000E6E090E0AD0C00E0C6E12D0940E096E1C
:10142000080E0A6E000E0E6E1D0E0D6EF4D704012E
:101430002351210AD8B4E4D7030AD8B4EFD7010A5C
:1014400004012039E832030BE806D8A4120020D0AA
:101450007F0E096E000E0A6E000E0E6E010E0D6EEE
:10146000C10E0C6E1200800E0C6E23C47FF01200B1
:101470007E0E096E000E0A6E000E0E6E010E0D6ECF
:10148000810E0C6E1200800E0C6E22C47EF01200D3
:1014900004012151010AD8B41200030AD8B4D8D7E4
:1014A000010AD8B4E5D70A0AD8B41200030AD8B49E
:1014B000DAD7010AD8A41200E6D70001846F000130
:1014C00080510001D8B408D000018451020D0F0EE4
:1014D000F324D96E000E07D000018451020D640E72
:1014E000F324D96E000EF420DA6EDECF85F0DDCF66
:1014F00086F00001855100018611D8A407D0000EA6
:101500000001806F000E0001816F1200000120EECB
:1015100002F08551D9268651DA2281C0DEFF82C0D1
:10152000DDFF000120EE01F08551D9268651DA2237
:1015300083C0DFFF85C0D9FF86C0DAFF400EDF160B
:1015400085C0D9FF86C0DAFF000EDB8685C0D9FFD3
:1015500086C0DAFF000EDB8E000180510001D8B496
:1015600008D000018451020D0F0EF324D96E000E35
:1015700007D000018451020D640EF324D96E000ED1
:10158000F420DA6E040EDF1A85C080F086C081F088
:10159000120000016C4B6D2B00016E4B6F2B000194
:1015A000704B712B0001724B732B00016D5104E1E4
:1015B00000016C29D8A005D0000E00016D6F000E4F
:1015C0006C6F00016F5104E100016E29D8A005D0B5
:1015D000000E00016F6F000E6E6F0001715104E18B
:1015E00000017029D8A005D0000E0001716F000E17
:1015F000706F0001735104E100017229D8A005D079
:10160000000E0001736F000E726F6CC080F06DC031
:1016100081F007EC10F06EC080F06FC081F0E1EC5B
:101620000FF070C07AF072C07BF07AC07CF07BC0A3
:101630007DF07C0E0001806F000E0001816F8AEC4E
:1016400011F0000E0001846F000184510001D8A444
:101650001200410E0001836FEE0EE82EFED7832F9D
:10166000FCD700D00001842BEFD7080E2C6E0E5053
:1016700010E1080E0D5CD8B00CD00DC02CF0285035
:10168000D8A402D0010E04D02804D8A402D0020E9F
:10169000286E2C500D5E000E0E5A20EE01F00F50F9
:1016A000D9261050DA222CC0DFFF280E0001786FF7
:1016B000040E0001796F0CA01CD03AD009C0F6FFCF
:1016C0000AC0F7FFF86A78C0D9FF79C0DAFF070EC1
:1016D000F76403D00800F55005D0F6CFE9FFF7CF47
:1016E000EAFFEF50DF6E094A0A2A0001784B792B96
:1016F0002C062C50D8B41200E1D709C0F6FF0AC05E
:10170000F7FFF86A78C0D9FF79C0DAFF070EF764EF
:1017100003D00800F55005D0F6CFE9FFF7CFEAFF78
:10172000EF50DF6E094A0A2A0001784B792B2C060C
:101730002C50D8B41200E1D72250D8A41200010EC8
:10174000226E2350D8A41200010E236E020E26181A
:10175000D8A415D020EE01F00F50D9261050DA226F
:10176000000EDF6E0FC0D9FF10C0DAFF480EDF6E2B
:101770000FC0D9FF10C0DAFF000EDB8E1200260466
:10178000D8A41200000E1B6E20EE01F01750D926CF
:101790001850DA22080EDF6E20EE02F01750D9261C
:1017A0001850DA22200EDE6E040EDD6E17C0D9FF4F
:1017B00018C0DAFF040EDF6E17C0D9FF18C0DAFFB9
:1017C000000EDB8E010E1B6E20EE01F01950D926A3
:1017D0001A50DA22080EDF6E20EE02F01950D926D8
:1017E0001A50DA22200EDE6E040EDD6E19C0D9FF0B
:1017F0001AC0DAFF800EDF6E1200306E2C50D8B4A3
:1018000007D03050020D0F0EF324D96E000E06D013
:101810003050020D640EF324D96E000EF420DA6EFF
:10182000DECF31F0DDCF32F031503210D8A405D008
:10183000000E2C6E000E2D6E120020EE02F03150C4
:10184000D9263250DA222DC0DEFF2EC0DDFF20EE79
:1018500001F03150D9263250DA222FC0DFFF31C0DB
:10186000D9FF32C0DAFF400EDF1631C0D9FF32C0D7
:10187000DAFF000EDB8631C0D9FF32C0DAFF000E7E
:10188000DB8E2C50D8B407D03050020D0F0EF3244D
:10189000D96E000E06D03050020D640EF324D96EBE
:1018A000000EF420DA6E040EDF1A31C02CF032C0C4
:1018B0002DF012000FC0D9FF10C0DAFF000EDFBC00
:1018C000010E2D6E040E0F1A080E2118D8A40BD08D
:1018D000040122517F0B6E6E6E50D8B402D0100EF0
:1018E00001D0040E216E2604D8A43AD020EE02F0D6
:1018F0000F50D9261050DA22280EDE6E040EDD6E4F
:1019000035EC0BF0020E2818D8A40DD00FC0D9FF6B
:1019100010C0DAFF040EDF6E0FC0D9FF10C0DAFF6F
:10192000000EDB8E12002D50D8A40DD00FC0D9FFB1
:1019300010C0DAFF480EDF6E0FC0D9FF10C0DAFF0B
:10194000000EDB8E12000FC0D9FF10C0DAFF080EA8
:10195000DF6E0FC0D9FF10C0DAFF000EDB8E120061
:1019600004BE049E000E266E1200000E0401286FB5
:10197000000E0401296F38D00C8E1C04D8A440D06E
:10198000040128833DD00C8E3BD00C8E040124BF73
:101990000BD0040124510F0B2C6E2C50020D640E41
:1019A000F324D96E000E0AD0040124510F0B2C6EC3
:1019B0002C50020D0F0EF324D96E000EF420DA6EB7
:1019C000DECF2DF0DDCF2EF02DC0D9FF2EC0DAFFF7
:1019D000DFAE16D02DC0D9FF2EC0DAFFDFA410D0A5
:1019E000010E0401286F0CD0040120511F0B000AC6
:1019F000D8B4C2D7010AD8B4C6D7030AD8B4C5D759
:101A00000CAE1200280E096E040E0A6E0C80020E37
:101A10000D6E120000016A5100016B11D8B42DD077
:101A20006AC0D9FF6BC0DAFF0001DFBE120025D00B
:101A300001C574F00001756B02C576F00001776B8B
:101A400074C080F075C081F007EC10F076C080F0B3
:101A500077C081F0E1EC0FF003C57AF004C57BF0AC
:101A60007AC07CF07BC07DF07C0E0001806F000EA0
:101A70000001816F8AEC11F006D005010051540A73
:101A8000D8B4D6D7D40A000E0001806F000E000132
:101A9000816F050E0001826F400E0001836F010E01
:101AA0005DEC0AF080C06AF081C06BF01200000E9D
:101AB0001E6E000E1F6E020E2618D8A41FD020EE38
:101AC00001F01950D9261A50DA22080EDF6E20EEE6
:101AD00002F01950D9261A50DA22280EDE6E040EB2
:101AE000DD6E19C0D9FF1AC0DAFF480EDF6E19C0CB
:101AF000D9FF1AC0DAFF000EDB8E12000D50040170
:101B0000265D0E5004012759D8B004D026C40DF02C
:101B100027C40EF035EC0BF020EE02F00F50D92662
:101B20001050DA22280EDE6E040EDD6E0FC0D9FFD3
:101B300010C0DAFF480EDF6E0FC0D9FF10C0DAFF09
:101B4000000EDB8E1200316E000E326E040E336E0C
:101B50002C502D6E2E6AD8902D362E3631502F6E89
:101B6000306AD8902F363036D8902F3630362D50F8
:101B70002F262E503022D8902F363036D8902F3640
:101B800030362F5032263050332232C0D9FF33C086
:101B9000DAFFDF9E2C50D8A407D03150020D640E1E
:101BA000F324D96E000E06D03150020D0F0EF3242F
:101BB000D96E000EF420DA6E32C0DEFF33C0DDFFD6
:101BC00032C0D9FF33C0DAFFDF9C20EE04F0325080
:101BD000D9263350DA22DF8C12002D0E246E2BC052
:101BE00046F0FD0E4616D8A438D02BC046F0D8904B
:101BF00046323F0E46164650040D000EF324176E73
:101C0000040EF420186E17C019F018C01AF0040E54
:101C1000191A17C0D9FF18C0DAFFDF30E8320F0BEE
:101C20000D0AD8A417D0200E2C6E040E2D6E20EEB7
:101C300002F01750D9261850DA22DECF2EF0DDCF71
:101C40002FF0000E316E080E306E4EEC10F035ECB9
:101C50000EF0120088EC0FF012002B50FD0B040A5E
:101C6000D8A412005AEC0CF01200000E286E000EE0
:101C7000206E000E1E6E000E1F6E000E1B6E000EFC
:101C8000266E0FC0D9FF10C0DAFF7F0EDF16040EDC
:101C90000F1A0FC0D9FF10C0DAFF7F0EDF16040E37
:101CA0000F1A19C0D9FF1AC0DAFF7F0EDF16000E17
:101CB0000C6E000E0E6E000E0D6E000E046E000E09
:101CC000066E000E056E83EC09F0000E396E030EF1
:101CD000386E000E3A6E000E3B6E000E3D6E000E2A
:101CE0003C6EECEC0EF09DEC08F012000001846FED
:101CF00030D09268000E896E9368000E8A6E9394BD
:101D0000020E0001806F000E0001816F010E58EC81
:101D10000FF0FDEC10F0000E0001856F090E0001C0
:101D2000856501D00BD0820E0001836FDE0EE82E98
:101D3000FED7832FFCD70001852BF0D78A84820E33
:101D40000001836FDE0EE82EFED7832FFCD78A9426
:101D5000120000018451000AD8B4CBD7010AD8B4CC
:101D60001200030A12000600E9CF4AF0EACF4BF056
:101D7000E1CF4CF0E2CF4DF0D9CF4EF0DACF4FF0BB
:101D8000F3CF50F0F4CF51F0F6CF52F0F7CF53F03D
:101D9000F8CF54F0F5CF55F0F1EC06F055C0F5FF53
:101DA00054C0F8FF53C0F7FF52C0F6FF51C0F4FF14
:101DB00050C0F3FF4FC0DAFF4EC0D9FF4DC0E2FF65
:101DC0004CC0E1FF4BC0EAFF4AC0E9FF49C0FBFF3E
:101DD00048C0FAFF569211000ED0010E24EC0FF00D
:101DE0001200020E24EC0FF01200C8EC10F01200EA
:101DF000F0EC09F0120038C03EF039C03FF03F501F
:101E0000000AD8B404D07F0AD8A412001AD03E50D9
:101E1000010AD8B4EAD7030AD8B41200010AD8B428
:101E2000E7D7060AD8B41200770AD8B41200010A1C
:101E3000D8B41200070AD8B4D4D7010AD8A4120023
:101E4000CCD73E50FF0A1200306E29D09268000EA7
:101E5000896E9368000E8A6E9394020E2C6E000EAB
:101E60002D6E010EB6EC0FF047EC11F0000E316E46
:101E7000090E316401D009D0820E2F6EDE0EE82EDD
:101E8000FED72F2EFCD7312AF3D78A84820E2F6EED
:101E9000DE0EE82EFED72F2EFCD78A94120030508B
:101EA000000AD8B4D3D7010AD8B41200030A12002A
:101EB0000001826F3F0EC716000EC66E00018251F0
:101EC000C61200018151C71205D0C78C14D0C78C2F
:101ED000C68811D000018051000AD8B4F6D7020A92
:101EE000D8B4F5D7010AD8B4F3D705D0928A938233
:101EF0000BD0939209D000018251040AD8B4F6D7CE
:101F0000010AD8B4F4D7F5D79380949EC68A1200FC
:101F1000020E2618D8A403D017EC08F01200000E09
:101F2000266E1B50D8A41FD020EE01F01950D926E0
:101F30001A50DA22080EDF6E20EE02F01950D92670
:101F40001A50DA22200EDE6E040EDD6E19C0D9FFA3
:101F50001AC0DAFF0C0EDF6E19C0D9FF1AC0DAFF03
:101F6000000EDB8E1200000E1B6E12002E6E3F0E56
:101F7000C716000EC66E2E50C6122D50C71205D0C1
:101F8000C78C13D0C78CC68810D02C50000AD8B488
:101F9000F7D7020AD8B4F6D7010AD8B4F4D705D0D7
:101FA000928A93820AD0939208D02E50040AD8B411
:101FB000F7D7010AD8B4F5D7F6D79380949EC68A8E
:101FC000120080C082F0010E000182170001823BE6
:101FD000BA5000018219EF0B8219BA6E0001D89035
:101FE0008133803380C082F0010E0001821700012E
:101FF000823B8247BA5000018219DF0B8219BA6E08
:102000000001D8908133803380C0BBFF120080C0B4
:1020100082F0010E000182170001823BBD500001D9
:102020008219EF0B8219BD6E0001D8908133803385
:1020300080C082F0010E000182170001823B8247BE
:10204000BD5000018219DF0B8219BD6E0001D890CE
:102050008133803380C0BEFF120070A01DD017C036
:10206000D9FF18C0DAFF800EDE18D8A414D00FC034
:10207000D9FF10C0DAFF840EDE18D8A40CD017C028
:10208000D9FF18C0DAFF0C0EDF6E17C0D9FF18C0D9
:10209000DAFF000EDB8E7090689A12002EC034F0CA
:1020A0002FC035F02CC032F02DC033F00ED034C02C
:1020B000D9FF35C0DAFF32C0E1FF33C0E2FFDFCF26
:1020C000E7FF344A352A324A332A3006D8A031068F
:1020D0003028EDE13128D8B41200E9D72CC02EF019
:1020E000010E2E162E3ABA502E18EF0B2E18BA6E7D
:1020F000D8902D322C322CC02EF0010E2E162E3AF6
:102100002E46BA502E18DF0B2E18BA6ED8902D32EC
:102110002C322CC0BBFF12002CC02EF0010E2E164C
:102120002E3ABD502E18EF0B2E18BD6ED8902D32C2
:102130002C322CC02EF0010E2E162E3A2E46BD50FB
:102140002E18DF0B2E18BD6ED8902D322C322CC0DD
:10215000BEFF1200376E34A405D0000E2C6E37502F
:10216000A3EC0DF034A205D0010E2C6E3750A3EC79
:102170000DF03750010D700EF324356E0F0EF42064
:10218000366E35C0D9FF36C0DAFF34C0DFFF12002B
:10219000000E0001686F000E0001696F1E0E346EA4
:1021A000010EAAEC10F0000E2C6E000E2D6E050E26
:1021B0002E6E400E2F6E010EFDEC0BF02CC06AF05F
:1021C0002DC06BF0120080C086F081C087F009D06E
:1021D00086C0D9FF87C0DAFF82C0DFFF0001864BCF
:1021E000872B00018407D8A0850700018429F0E12E
:1021F00000018529D8B41200EBD7CB68000E00018E
:10220000816F000E806F07EC10F0000E0001816FEF
:10221000000E806FE1EC0FF094929494CA80CA8211
:10222000CA84BD86BD84BA86BA841200000E1D6EB3
:10223000000E396E740E386E000E3A6E000E3B6E54
:10224000000E3D6E000E3C6EECEC0EF06D9269944B
:1022500001D0689468B4FDD7000E256E120021509D
:10226000D8A41200000E6D6E000E696E160E6F6E11
:102270009F0E6B6E7B0E696ED08EA28AA08AF28E44
:1022800001D06D866DA6FDD7010E216E1200CB68C0
:10229000000E2D6E000E2C6E8CEC10F0000E2D6ECC
:1022A000000E2C6E6EEC10F094929494CA80CA8248
:1022B000CA84BD86BD84BA86BA84120069846898CF
:1022C0006D82010E1D6E000E256E000E396E750EAC
:1022D000386E000E3A6E000E3B6E000E3D6E000E24
:1022E0003C6EECEC0EF012002CC032F02DC033F03E
:1022F00008D032C0D9FF33C0DAFF2EC0DFFF324A28
:10230000332A3006D8A031063028F3E13128D8B47A
:102310001200EFD70BD080C0D9FF81C0DAFFDF50A9
:10232000C96E0001804B812BC7A0FED780C0D9FFAA
:1023300081C0DAFFDF50D8B41200EDD700EE60F0B4
:10234000200EEE6AE806FDE100EE01F02B0EEE6ACB
:10235000E806FDE156905692000EF86E0001B1EFCE
:1023600011F0000E76EC0EF0A2EC05F02FEC11F05F
:10237000200E216003D0C9EC0AF0FAD76DB2F8D76D
:102380000AEC0DF0F5D7010E00016027000E612365
:10239000622363231D50D8A41200252A2550D8A4F7
:0623A00012002568120086
:020000040020DA
:08000000FFFFFFFFFFFFFFFF00
:020000040030CA
:0E00000020023F1EFF8181FF0FC00FE00F4066
:00000001FF
