:040000000BEF00F012
:100008005682FACF48F0FBCF49F067ED0FF003EFC7
:0200180013F0E3
:1008000000C30809083D086B0834034D0069006304
:100810000072006F006300680069007000200054DF
:10082000006500630068006E006F006C006F006779
:10083000007900200049006E0063002E002E035353
:100840000069006D0070006C0065002000480049E0
:1008500000440020004400650076006900630065E4
:10086000002000440065006D006F000902290001AE
:100870000100C03209040000020300000009211138
:10088000010001221D000705810340000107050149
:10089000034000010600FF0901A1011901294015CB
:1008A0000026FF007508954081001901294091003C
:1008B000C01201000200000008D8043F000200013D
:1008C000020001040309040004012205D8A410D089
:1008D000040120511F0B0009D8A40AD00C8E030E6E
:1008E00004012119D8A402D0010E01D0000E1E6E01
:1008F00004012251D8A41200040120511F0B020A46
:10090000D8A41200040124510F0B0009D8B412001E
:10091000040124510F0B406E020E40601200200EA5
:100920002218D8A412000C8E040124BF1BD004018D
:1009300024510F0B406E4050020D640EF324D96E0B
:10094000000EF420DA6EDECF44F0DDCF45F0040176
:1009500024510F0B406E4050010D170EF324D96E39
:10096000000E1AD0040124510F0B406E4050020DAE
:100970000F0EF324D96E000EF420DA6EDECF44F0B1
:10098000DDCF45F0040124510F0B406E4050010DA6
:10099000150EF324D96E000EF420DA6EDF50436E8C
:1009A00043B002D0449401D04484040124BF0BD04E
:1009B000040124510F0B406E4050020D640EF324CD
:1009C000D96E000E0AD0040124510F0B406E405026
:1009D000020D0F0EF324D96E000EF420DA6E44C01F
:1009E000DEFF45C0DDFF030E04012119D8A42ED07F
:1009F00044C0D9FF45C0DAFFDFAE1BD0040124BFDD
:100A00000BD0040124510F0B406E4050010D170E06
:100A1000F324D96E000E0AD0040124510F0B406E4E
:100A20004050010D150EF324D96E000EF420DA6E3D
:100A3000DF8244C0D9FF45C0DAFF000EDB8444C02A
:100A4000D9FF45C0DAFF000EDB8E1200040E441AF7
:100A500044C0D9FF45C0DAFFDFAE1BD044C0D9FF88
:100A600045C0DAFF7F0EDF1644C0D9FF45C0DAFF6C
:100A7000000EDB8C000E396E050E386E44C03AF065
:100A800045C03BF0000E3D6E020E3C6E28EC0FF0B0
:100A900006D044C0D9FF45C0DAFF000EDB8C040E3F
:100AA000441A43B206D044C0D9FF45C0DAFFDFAED6
:100AB00030D0040124BF0BD0040124510F0B406E31
:100AC0004050010D170EF324D96E000E0AD0040118
:100AD00024510F0B406E4050010D150EF324D96EBA
:100AE000000EF420DA6EDF9244C0D9FF45C0DAFF71
:100AF0003B0EDF16000E396E050E386E44C03AF01C
:100B000045C03BF0000E3D6E020E3C6E28EC0FF02F
:100B100006D044C0D9FF45C0DAFF3B0EDF16040102
:100B200024510F0B406E4050010D700EF324416EA6
:100B30000F0EF420426E41C0D9FF42C0DAFFFE0E14
:100B4000DF16120000016A5100016B11D8B48DD07C
:100B50006AC0D9FF6BC0DAFF0001DFBE120085D08A
:100B6000020EC1EC11F08FD001C574F00001756B5D
:100B700002C576F00001776B74C082F075C083F017
:100B8000A1EC10F076C082F077C083F07BEC10F01F
:100B900003C57AF004C57BF07AC07EF07BC07FF09D
:100BA0007E0E0001826F000E0001836FEFEC12F0E9
:100BB0006AD00001685100016911D8B407D068C03B
:100BC000D9FF69C0DAFF0001DFBE5DD0810E0501EB
:100BD000406F010E2CEC11F00009D8A402D0010ED8
:100BE00001D0000E0501416F010E0001826F400E21
:100BF0000001836F050E0001846F400E0001856FB8
:100C0000010E17EC0BF02CD00001685100016911A6
:100C1000D8B407D068C0D9FF69C0DAFF0001DFBED1
:100C200032D0000E29EC10F082C089F083C08AF027
:100C3000370E0501406F89C041F500018A51050159
:100C4000426F010E0001826F400E0001836F050E9E
:100C50000001846F400E0001856F010E17EC0BF050
:100C600082C068F083C069F00ED005010051370AD8
:100C7000D8B4CAD7630AD8B477D7D40AD8B470D74F
:100C8000010AD8B496D7000E0001826F000E000151
:100C9000836F050E0001846F400E0001856F010E09
:100CA00017EC0BF082C06AF083C06BF01200A09AC0
:100CB000000E6A6E000E686E000E706E710E0001FE
:100CC000826F0F0E0001836F000E0001856F000E12
:100CD000846F000E0001876F010E866F4AEC12F0E0
:100CE000160E6F6E9F0E6B6E7B0E696E000E00010E
:100CF0008A6F070E00018A6501D010D000018A5169
:100D0000040D000EF324D96E040EF420DA6EDE6AB0
:100D1000DE6ADE6ADD6A00018A2BEBD76D8C000E7D
:100D20006E6E6D986D9C6896000E0C6E000E046ED3
:100D3000000E066E000E056E68B6F5D7010E236E26
:100D4000010E246E000E206E000E00017C6F000E5E
:100D50001F6E000E00018A6F010E00018A6501D02E
:100D600033D000018A51020D0F0EF324D96E000E0C
:100D7000F420DA6E000EDE6E000EDD6E00018A5188
:100D8000020D640EF324D96E000EF420DA6E000E0C
:100D9000DE6E000EDD6E00018A51010D150EF3248A
:100DA000D96E000EF420DA6E000EDF6E00018A515B
:100DB000010D170EF324D96E000EF420DA6E000E2A
:100DC000DF6E00018A2BC8D7080E0F6E040E106E5E
:100DD000160E706E040E0401036F200E026F080ED3
:100DE0000401016F040E0401006F0401008F000E66
:100DF000296E000E0001606F000E616F000E626FC1
:100E0000000E636F000E00017D6F000E226E120057
:100E1000A09A000E6A6E000E686E000E706E710E63
:100E20002C6E0F0E2D6E000E2F6E000E2E6E000E0D
:100E3000316E010E306EC4EC12F0160E6F6E9F0E06
:100E40006B6E7B0E696E000E346E070E346401D03B
:100E50000ED03450040D000EF324D96E040EF4208D
:100E6000DA6EDE6ADE6ADE6ADD6A342AEED76D8CFF
:100E7000000E6E6E6D986D9C6896000E0C6E000EE6
:100E8000046E000E066E000E056E68B6F5D7010EF4
:100E9000236E010E246E000E206E000E00017C6F8A
:100EA000000E1F6E000E346E010E346401D02ED081
:100EB0003450020D0F0EF324D96E000EF420DA6EBA
:100EC000000EDE6E000EDD6E3450020D640EF32453
:100ED000D96E000EF420DA6E000EDE6E000EDD6EAE
:100EE0003450010D150EF324D96E000EF420DA6E85
:100EF000000EDF6E3450010D170EF324D96E000E74
:100F0000F420DA6E000EDF6E342ACED7080E0F6E94
:100F1000040E106E160E706E040E0401036F200E88
:100F2000026F080E0401016F040E0401006F04013A
:100F3000008F000E296E000E0001606F000E616FC1
:100F4000000E626F000E636F000E00017D6F000ED9
:100F5000226E12002204D8B46DBA06D0000E686E5C
:100F600069806988020E226E68B469A403D068940F
:100F700064EC12F06DA202D0A19A120068B069A0D0
:100F800006D008EC07F0A08A040E226E689068B8BC
:100F900069A802D0ADEC12F068AC1AD069AC0ED0E2
:100FA000000E396E730E386E000E3A6E000E3B6EF8
:100FB000000E3D6E010E3C6E28EC0FF0689C29EC93
:100FC00013F02550D8A425062550D8B456EC0CF0C3
:100FD00068BA69AA02D0EBEC10F068B269A20FD02F
:100FE0007F0E396E3868000E3A6E000E3B6E000EB2
:100FF0003D6E010E3C6E28EC0FF0000E6A6E040E82
:10100000226002D0A19A120069A638D0000E476E65
:10101000030E476401D032D068A630D06CCF2BF0DD
:101020002B30E832E8320F0B276E68962BB407D0CE
:101030002750010D170EF324D96E000E06D027504D
:10104000010D150EF324D96E000EF420DA6EDF7058
:101050002750D8A403D05DEC0EF00ED0000E396EF0
:10106000720E386E2B0E3A6E000E3B6E000E3D6E09
:10107000000E3C6E28EC0FF0472ACAD7A19A120046
:10108000800E04012019D8A41200C00E0C6E7CD072
:10109000B10E096E080E0A6E000E0E6E120E0D6E67
:1010A000120004012251D8A43ED004012251020DA5
:1010B000070EF324F66E080EF420F76E0900F5CF44
:1010C00009F00A00F5CF0AF0020E09242C6E000E7A
:1010D0000A202D6E2CC0F6FF2DC0F7FFF86A070E10
:1010E000F76403D00800F55005D0F6CFE9FFF7CF3D
:1010F000EAFFEF500D6E030E09242C6E000E0A203D
:101100002D6E2CC0F6FF2DC0F7FFF86A070EF764AE
:1011100003D00800F55005D0F6CFE9FFF7CFEAFF7E
:10112000EF500E6E1200000E0C6E1200030E040142
:10113000226124D004012251020D010EF324F66E27
:10114000080EF420F76E0900F5CF09F00A00F5CF7C
:101150000AF009C0F6FF0AC0F7FFF86A070EF76445
:1011600003D00800F55005D0F6CFE9FFF7CFEAFF2E
:10117000EF502C6E2C500D6E0E6A1200000E0C6E8D
:101180001200000E0C6E120004012351010AD8B4A3
:101190007FD7030AD8B485D7010AD8B4C7D7F1D707
:1011A00020EE01F01950D9261A50DA22DF502D6EA8
:1011B0002D50055C000E0658D8A005C02DF02D500E
:1011C000055E000E065A000E2C6E11D02C50010D3B
:1011D000280EF324D96E040EF420DA6E01C0E1FF6C
:1011E00002C0E2FFDFCFE7FF014A022A2C2A2D507E
:1011F0002C5CD8A0EBD705500610D8B432D020EE26
:1012000001F01B50D9261C50DA22080EDF6E20EEAA
:1012100002F01B50D9261C50DA22280EDE6E040E76
:10122000DD6E19C0D9FF1AC0DAFFDFBC0DD01BC0BC
:10123000D9FF1CC0DAFF480EDF6E1BC0D9FF1CC0EF
:10124000DAFF000EDB8E12001BC0D9FF1CC0DAFFD4
:10125000080EDF6E1BC0D9FF1CC0DAFF000EDB8E4C
:10126000120020EE01F01B50D9261C50DA22080E85
:10127000DF6E20EE02F01B50D9261C50DA22200E21
:10128000DE6E040EDD6E1BC0D9FF1CC0DAFF040E3B
:10129000DF6E1BC0D9FF1CC0DAFF000EDB8E049E80
:1012A0002150D8A4120056EC0CF012006D980CBE20
:1012B00039D004AE0CD0020E266E00017C51D8B499
:1012C000C6EC0DF0000E246E000E236E120020EE10
:1012D00001F01B50D9261C50DA22080EDF6E20EEDA
:1012E00002F01B50D9261C50DA22200EDE6E040EAE
:1012F000DD6E1BC0D9FF1CC0DAFF0C0EDF6E1BC0F9
:10130000D9FF1CC0DAFF000EDB8E0FC0D9FF10C062
:10131000DAFF040EDF6E0FC0D9FF10C0DAFF000E37
:10132000DB8E1200040120AF10D0010E266E20507B
:10133000D8B4C6EC0DF0000E246E000E236E2150C2
:10134000D8A4120056EC0CF01200020E266E20EE0D
:1013500001F01B50D9261C50DA22080EDF6E20EE59
:1013600002F01B50D9261C50DA22200EDE6E040E2D
:10137000DD6E1BC0D9FF1CC0DAFF040EDF6E1BC080
:10138000D9FF1CC0DAFF000EDB8E000E246E000EAB
:10139000236E2150D8A4120056EC0CF012000C8ED3
:1013A000710E2C6E0F0E2D6E000E2F6E000E2E6E17
:1013B000000E316E010E306EC4EC12F0000E2C6E79
:1013C000040E2D6E000E2F6E000E2E6E000E316E6E
:1013D000200E306EC4EC12F06D8C000E406E010ECB
:1013E000406401D016D04050010D150EF324D96E83
:1013F000000EF420DA6E000EDF6E4050010D170E65
:10140000F324D96E000EF420DA6E000EDF6E402A4F
:10141000E6D72A0E2C6E000E2D6E000E2F6E000EDB
:101420002E6E000E316E010E306EC4EC12F06D9C0B
:10143000080E0F6E040E106E000E196E040E1A6E5A
:1014400019C01BF01AC01CF022C429F02950D8A4DE
:1014500003D0100E226E1200000E396E010E386E8F
:10146000290E3A6E000E3B6E000E3D6E010E3C6E74
:1014700028EC0FF0200E226E120004012039E83211
:10148000030B0009D8A4120043D00C8E080E226E64
:10149000120040EC08F01200CFEC09F01200290E07
:1014A000096E000E0A6E0C80010E0D6E0C8E12007D
:1014B0006FEC0DF0120064EC04F0120004012451F2
:1014C000010D2A0EF324096E000EF4200A6E0C8022
:1014D000010E0D6E0C8E12000C8E04012451010DB4
:1014E0002A0EF324D96E000EF420DA6E22C4DFFF38
:1014F0001200000E396E020E386E000E3A6E000EAB
:101500003B6E000E3D6E000E3C6E28EC0FF012009C
:1015100004012151000AD8B4CBD7010AD8B4CBD7E3
:10152000020AD8B4C8D7060AD8B4AFD7030AD8B4C9
:10153000B0D7010AD8B4DDD70F0AD8B4B0D7010AA2
:10154000D8B4AAD7030AD8B4B9D7010AD8B4C4D733
:10155000070A1200040120511F0BE806D8A412004C
:1015600004012451D8A41200060E04012119D8B494
:1015700018D020D02904D8A41DD07D0E096E080EE5
:101580000A6E000E0E6E090E0AD0C00E0C6E12D03E
:10159000940E096E080E0A6E000E0E6E1D0E0D6E74
:1015A000F4D704012351210AD8B4E4D7030AD8B4EC
:1015B000EFD7010A04012039E832030BE806D8A46A
:1015C000120020D0810E096E000E0A6E000E0E6E03
:1015D000010E0D6EC10E0C6E1200800E0C6E23C437
:1015E00081F01200800E096E000E0A6E000E0E6E63
:1015F000010E0D6E810E0C6E1200800E0C6E22C458
:1016000080F0120004012151010AD8B41200030A2B
:10161000D8B4D8D7010AD8B4E5D70A0AD8B412008A
:10162000030AD8B4DAD7010AD8A41200E6D7000119
:10163000866F000182510001D8B408D000018651A4
:10164000020D0F0EF324D96E000E07D00001865153
:10165000020D640EF324D96E000EF420DA6EDECF94
:1016600087F0DDCF88F00001875100018811D8A4F0
:1016700007D0000E0001826F000E0001836F120080
:10168000000120EE02F08751D9268851DA2283C06A
:10169000DEFF84C0DDFF000120EE01F08751D92676
:1016A0008851DA2285C0DFFF87C0D9FF88C0DAFF02
:1016B000400EDF1687C0D9FF88C0DAFF000EDB8638
:1016C00087C0D9FF88C0DAFF000EDB8E000182518F
:1016D0000001D8B408D000018651020D0F0EF3248A
:1016E000D96E000E07D000018651020D640EF3245E
:1016F000D96E000EF420DA6E040EDF1A87C082F075
:1017000088C083F0120000016C4B6D2B00016E4B02
:101710006F2B0001704B712B0001724B732B00017A
:101720006D5104E100016C29D8A005D0000E000124
:101730006D6F000E6C6F00016F5104E100016E29A6
:10174000D8A005D0000E00016F6F000E6E6F000173
:10175000715104E100017029D8A005D0000E0001EC
:10176000716F000E706F0001735104E10001722966
:10177000D8A005D0000E0001736F000E726F6CC010
:1017800082F06DC083F0A1EC10F06EC082F06FC0EB
:1017900083F07BEC10F070C07AF072C07BF07AC0FE
:1017A0007EF07BC07FF07E0E0001826F000E000194
:1017B000836FEFEC12F0000E0001866F000186517E
:1017C0000001D8A41200410E0001856FEE0EE82E34
:1017D000FED7852FFCD700D00001862BEFD7080E4F
:1017E0002C6E0E5010E1080E0D5CD8B00CD00DC060
:1017F0002CF02850D8A402D0010E04D02804D8A47C
:1018000002D0020E286E2C500D5E000E0E5A20EEF5
:1018100001F00F50D9261050DA222CC0DFFF280E1D
:101820000001786F040E0001796F0CA01CD03AD033
:1018300009C0F6FF0AC0F7FFF86A78C0D9FF79C07F
:10184000DAFF070EF76403D00800F55005D0F6CF95
:10185000E9FFF7CFEAFFEF50DF6E094A0A2A0001DD
:10186000784B792B2C062C50D8B41200E1D709C044
:10187000F6FF0AC0F7FFF86A78C0D9FF79C0DAFF2F
:10188000070EF76403D00800F55005D0F6CFE9FF46
:10189000F7CFEAFFEF50DF6E094A0A2A0001784BC2
:1018A000792B2C062C50D8B41200E1D72350D8A4A1
:1018B0001200010E236E2450D8A41200010E246ED3
:1018C000020E2618D8A415D020EE01F00F50D9260C
:1018D0001050DA22000EDF6E0FC0D9FF10C0DAFF01
:1018E000480EDF6E0FC0D9FF10C0DAFF000EDB8E8E
:1018F00012002604D8A41200000E1D6E20EE01F086
:101900001950D9261A50DA22080EDF6E20EE02F0A6
:101910001950D9261A50DA22200EDE6E040EDD6E22
:1019200019C0D9FF1AC0DAFF040EDF6E19C0D9FF43
:101930001AC0DAFF000EDB8E010E1D6E20EE01F0E4
:101940001B50D9261C50DA22080EDF6E20EE02F062
:101950001B50D9261C50DA22200EDE6E040EDD6EDE
:101960001BC0D9FF1CC0DAFF800EDF6E1200306E84
:101970002C50D8B407D03050020D0F0EF324D96E7E
:10198000000E06D03050020D640EF324D96E000E06
:10199000F420DA6EDECF31F0DDCF32F0315032108C
:1019A000D8A405D0000E2C6E000E2D6E120020EE75
:1019B00002F03150D9263250DA222DC0DEFF2EC07F
:1019C000DDFF20EE01F03150D9263250DA222FC04F
:1019D000DFFF31C0D9FF32C0DAFF400EDF1631C061
:1019E000D9FF32C0DAFF000EDB8631C0D9FF32C02A
:1019F000DAFF000EDB8E2C50D8B407D03050020D29
:101A00000F0EF324D96E000E06D03050020D640E76
:101A1000F324D96E000EF420DA6E040EDF1A31C002
:101A20002CF032C02DF012000FC0D9FF10C0DAFF29
:101A3000000EDFBC010E2D6E040E0F1A080E2218C8
:101A4000D8A40BD0040122517F0B6E6E6E50D8B417
:101A500002D0100E01D0040E226E2604D8A43AD073
:101A600020EE02F00F50D9261050DA22280EDE6E3A
:101A7000040EDD6EEFEC0BF0020E2818D8A40DD08A
:101A80000FC0D9FF10C0DAFF040EDF6E0FC0D9FF00
:101A900010C0DAFF000EDB8E12002D50D8A40DD03E
:101AA0000FC0D9FF10C0DAFF480EDF6E0FC0D9FF9C
:101AB00010C0DAFF000EDB8E12000FC0D9FF10C07D
:101AC000DAFF080EDF6E0FC0D9FF10C0DAFF000E7C
:101AD000DB8E120004BE049E000E266E1200000E65
:101AE0000401286F000E0401296F3AD00C8E040106
:101AF00028811E04D8A440D0040128833DD00C8E38
:101B00003BD00C8E040124BF0BD0040124510F0BD9
:101B10002C6E2C50020D640EF324D96E000E0AD0E8
:101B2000040124510F0B2C6E2C50020D0F0EF324C8
:101B3000D96E000EF420DA6EDECF2DF0DDCF2EF060
:101B40002DC0D9FF2EC0DAFFDFAE16D02DC0D9FFD1
:101B50002EC0DAFFDFA410D0010E0401286F0CD0D4
:101B6000040120511F0B000AD8B4C0D7010AD8B411
:101B7000C6D7030AD8B4C5D70CAE1200280E096E1A
:101B8000040E0A6E0C80020E0D6E1200000E206E06
:101B9000000E00017C6F020E2618D8A41FD020EE84
:101BA00001F01B50D9261C50DA22080EDF6E20EE01
:101BB00002F01B50D9261C50DA22280EDE6E040ECD
:101BC000DD6E1BC0D9FF1CC0DAFF480EDF6E1BC0E4
:101BD000D9FF1CC0DAFF000EDB8E12000D5004018D
:101BE000265D0E5004012759D8B004D026C40DF04C
:101BF00027C40EF0EFEC0BF020EE02F00F50D926C8
:101C00001050DA22280EDE6E040EDD6E0FC0D9FFF2
:101C100010C0DAFF480EDF6E0FC0D9FF10C0DAFF28
:101C2000000EDB8E1200316E000E326E040E336E2B
:101C30002C502D6E2E6AD8902D362E3631502F6EA8
:101C4000306AD8902F363036D8902F3630362D5017
:101C50002F262E503022D8902F363036D8902F365F
:101C600030362F5032263050332232C0D9FF33C0A5
:101C7000DAFFDF9E2C50D8A407D03150020D640E3D
:101C8000F324D96E000E06D03150020D0F0EF3244E
:101C9000D96E000EF420DA6E32C0DEFF33C0DDFFF5
:101CA00032C0D9FF33C0DAFFDF9C20EE04F032509F
:101CB000D9263350DA22DF8C12002D0E256E2BC070
:101CC00046F0FD0E4616D8A438D02BC046F0D8906A
:101CD00046323F0E46164650040D000EF324196E90
:101CE000040EF4201A6E19C01BF01AC01CF0040E6A
:101CF0001B1A19C0D9FF1AC0DAFFDF30E8320F0B08
:101D00000D0AD8A417D0200E2C6E040E2D6E20EED6
:101D100002F01950D9261A50DA22DECF2EF0DDCF8C
:101D20002FF0000E316E080E306E0CEC11F0A5ECA9
:101D30000EF01200D0EC0FF012002B50FD0B040A35
:101D4000D8A4120014EC0DF01200000E286E000E44
:101D5000216E000E206E000E00017C6F000E1D6EC5
:101D6000000E266E0FC0D9FF10C0DAFF7F0EDF16FF
:101D7000040E0F1A0FC0D9FF10C0DAFF7F0EDF1656
:101D8000040E0F1A1BC0D9FF1CC0DAFF7F0EDF162E
:101D9000000E0C6E000E0E6E000E0D6E000E046E28
:101DA000000E066E000E056E3DEC0AF0000E396E58
:101DB000030E386E000E3A6E000E3B6E000E3D6E46
:101DC000000E3C6E28EC0FF056EC09F012001F04D8
:101DD000D8A436D0010E14EC12F012001304141023
:101DE000D8A404D0010EF9EC11F02FD04B0E13182B
:101DF0001410D8A404D0010E14EC12F026D0145004
:101E000004E1970E135CD8A020D0000E146E000ED3
:101E1000136E1BD013041410D8A404D0010EF9ECD7
:101E200011F013D0320E13181410D8A404D0010EE0
:101E300014EC12F00AD0B70E135C030E1458E3D75B
:101E40002250200AD8B4CAD7E5D7134A142A120060
:101E500015D0E7EC0EF01200E7EC0EF0010EC7EC27
:101E600010F01200E7EC0EF0020EC7EC10F01200BA
:101E70002FEC12F01200AAEC0AF0120038C03EF06B
:101E800039C03FF03F50000AD8B404D07F0AD8A42C
:101E900012001AD03E50010AD8B4EAD7030AD8B4C7
:101EA0001200010AD8B4E7D7060AD8B41200770A9C
:101EB000D8B41200010AD8B4CCD7070AD8B4D2D704
:101EC000010AD8A41200C8D73E50FF0A120006002B
:101ED000E9CF4AF0EACF4BF0E1CF4CF0E2CF4DF042
:101EE000D9CF4EF0DACF4FF0F3CF50F0F4CF51F01E
:101EF000F6CF52F0F7CF53F0F8CF54F0F5CF55F0BE
:101F0000AAEC07F055C0F5FF54C0F8FF53C0F7FF27
:101F100052C0F6FF51C0F4FF50C0F3FF4FC0DAFFCC
:101F20004EC0D9FF4DC0E2FF4CC0E1FF4BC0EAFFFD
:101F30004AC0E9FF49C0FBFF48C0FAFF56921100B2
:101F40000001846F3F0EC716000EC66E000184515B
:101F5000C61200018351C71205D0C78C14D0C78C9C
:101F6000C68811D000018251000AD8B4F6D7020AFF
:101F7000D8B4F5D7010AD8B4F3D705D0928A9382A2
:101F80000BD0939209D000018451040AD8B4F6D73B
:101F9000010AD8B4F4D7F5D79380949EC68A12006C
:101FA000020E2618D8A403D0D0EC08F01200000EC0
:101FB000266E1D50D8A41FD020EE01F01B50D9264C
:101FC0001C50DA22080EDF6E20EE02F01B50D926DC
:101FD0001C50DA22200EDE6E040EDD6E1BC0D9FF0F
:101FE0001CC0DAFF0C0EDF6E1BC0D9FF1CC0DAFF6D
:101FF000000EDB8E1200000E1D6E12002E6E3F0EC4
:10200000C716000EC66E2E50C6122D50C71205D030
:10201000C78C13D0C78CC68810D02C50000AD8B4F7
:10202000F7D7020AD8B4F6D7010AD8B4F4D705D046
:10203000928A93820AD0939208D02E50040AD8B480
:10204000F7D7010AD8B4F5D7F6D79380949EC68AFD
:1020500012000001876F04D00001826983691200B9
:1020600000018751000AD8A4F7D787C084F0000187
:1020700084478447C25000018419C30B8419C26E7F
:10208000C282C2B2FED7C4CF85F00001866B0001C8
:102090008551866F856BC3500001851385C082F022
:1020A00086C083F012000001856F1BD0010EA4ECE6
:1020B00011F0020EA4EC11F0010E16EC13F0000E5C
:1020C0004EEC13F0000E7EEC13F0020E0001826F56
:1020D000000E0001836F010EA0EC0FF096EC12F0E1
:1020E000120000018551000AD8B4E0D7010AD8B423
:1020F0001200030A120082C084F0010E000184174E
:102100000001843BBA5000018419EF0B8419BA6EA8
:102110000001D8908333823382C084F0010E000125
:1021200084170001843B8447BA5000018419DF0BF7
:102130008419BA6E0001D8908333823382C0BBFF0A
:10214000120082C084F0010E000184170001843B5C
:10215000BD5000018419EF0B8419BD6E0001D890A9
:102160008333823382C084F0010E000184170001A2
:10217000843B8447BD5000018419DF0B8419BD6E78
:102180000001D8908333823382C0BEFF12002F6ECD
:1021900019D0010EDEEC11F0020EDEEC11F0010E92
:1021A0005FEC13F0000E70EC13F0000E89EC13F0EE
:1021B000020E2C6E000E2D6E010EFEEC0FF0DAEC0E
:1021C00012F012002F50000AD8B4E3D7010AD8B495
:1021D0001200030A120070A01DD019C0D9FF1AC046
:1021E000DAFF800EDE18D8A414D00FC0D9FF10C0BB
:1021F000DAFF840EDE18D8A40CD019C0D9FF1AC09B
:10220000DAFF0C0EDF6E19C0D9FF1AC0DAFF000E1C
:10221000DB8E7090689A12002EC034F02FC035F01B
:102220002CC032F02DC033F00ED034C0D9FF35C0F1
:10223000DAFF32C0E1FF33C0E2FFDFCFE7FF344A0D
:10224000352A324A332A3006D8A031063028EDE14B
:102250003128D8B41200E9D70001826F0ED081B8BE
:1022600002D0010E1200000E120081BA02D0010E3F
:102270001200000E1200000E120000018251000A2E
:10228000D8B4F9D7010AD8B4EAD7030AD8B4EDD73D
:10229000000E12002CC02EF0010E2E162E3ABA504F
:1022A0002E18EF0B2E18BA6ED8902D322C322CC06F
:1022B0002EF0010E2E162E3A2E46BA502E18DF0B97
:1022C0002E18BA6ED8902D322C322CC0BBFF1200C3
:1022D0002CC02EF0010E2E162E3ABD502E18EF0BEC
:1022E0002E18BD6ED8902D322C322CC02EF0010E3F
:1022F0002E162E3A2E46BD502E18DF0B2E18BD6E10
:10230000D8902D322C322CC0BEFF1200376E34A470
:1023100005D0000E2C6E375013EC0EF034A205D011
:10232000010E2C6E375013EC0EF03750010D700E6D
:10233000F324356E0F0EF420366E35C0D9FF36C04B
:10234000DAFF34C0DFFF12000001826F08D09390E3
:1023500012009394120093941200939612000001BD
:102360008251000AD8B41200010AD8B4F0D7030A87
:10237000D8B4EFD7010AD8B4EED7070AD8A4120010
:10238000ECD70001826F08D08A7012008A741200A4
:102390008A7412008A76120000018251000AD8B4B1
:1023A0001200010AD8B4F0D7030AD8B4EFD7010A53
:1023B000D8B4EED7070AD8A41200ECD72C6E08D0F8
:1023C000939012009394120093941200939612002B
:1023D0002C50000AD8B41200010AD8B4F1D7030A6D
:1023E000D8B4F0D7010AD8B4EFD7070AD8A412009E
:1023F000EDD72C6E08D08A8012008A8412008A845D
:1024000012008A8612002C50000AD8B41200010A69
:10241000D8B4F1D7030AD8B4F0D7010AD8B4EFD7AB
:10242000070AD8A41200EDD72C6E08D08A901200AB
:102430008A9412008A9412008A9612002C50000A84
:10244000D8B41200010AD8B4F1D7030AD8B4F0D72F
:10245000010AD8B4EFD7070AD8A41200EDD7000EAE
:102460000001686F000E0001696F1E0E346E010ED0
:1024700086EC11F0000E2C6E000E2D6E050E2E6EE9
:10248000400E2F6E010EB7EC0CF02CC06AF02DC080
:102490006BF0120082C088F083C089F009D088C038
:1024A000D9FF89C0DAFF84C0DFFF0001884B892B88
:1024B00000018607D8A0870700018629F0E1000106
:1024C0008729D8B41200EBD7000E1F6E000E396EAC
:1024D000740E386E000E3A6E000E3B6E000E3D6EAE
:1024E000000E3C6E28EC0FF06D92699401D0689458
:1024F00068B4FDD7000E00017D6F12002250D8A4F1
:102500001200000E6D6E000E696E160E6F6E9F0E3D
:102510006B6E7B0E696ED08EA28AA08AF28E01D07D
:102520006D866DA6FDD7010E226E1200CB68000EDF
:102530000001836F8269A1EC10F0000E0001836F2F
:1025400082697BEC10F094929494CA80CA82CA8407
:10255000BD86BD84BA86BA841200698468986D828B
:10256000010E1F6E000E00017D6F000E396E750E9C
:10257000386E000E3A6E000E3B6E000E3D6E000E81
:102580003C6E28EC0FF012002CC032F02DC033F05E
:1025900008D032C0D9FF33C0DAFF2EC0DFFF324A85
:1025A000332A3006D8A031063028F3E13128D8B4D8
:1025B0001200EFD7CB68000E2D6E2C6868EC11F07E
:1025C000000E2D6E2C684AEC11F094929494CA80FF
:1025D000CA82CA84BD86BD84BA86BA8412000BD072
:1025E00082C0D9FF83C0DAFFDF50C96E0001824B81
:1025F000832BC7A0FED782C0D9FF83C0DAFFDF508C
:10260000D8B41200EDD700EE60F0220EEE6AE806B4
:10261000FDE100EE01F02B0EEE6AE806FDE15690BA
:102620005692000EF86E00013CEF13F00001826F2D
:1026300004D093881200938A120000018251000A8C
:10264000D8B41200010AD8B4F4D7030AD8A41200EF
:10265000F2D7010E00016027000E6123622363237D
:102660001F50D8A4120000017D2B00017D51D8A479
:10267000120000017D691200000E53EC10F057ECBF
:1026800006F07EEC12F0200E226003D083EC0BF0FB
:10269000FAD76DB2F8D7A2EC05F0F5D70001826F3A
:1026A000000182510001D8A41200010EC26EC15077
:1026B000F00B0E09C16E3C0EC06EC08E12002C6E67
:1026C00004D093881200938A12002C50000AD8B4C8
:1026D0001200010AD8B4F5D7030AD8A41200F3D720
:1026E0002C6E2C50D8A41200010EC26EC150F00BFB
:1026F0000E09C16E3C0EC06EC08E12000001826FCA
:1027000002D09280120000018251000AD8A4120067
:10271000F8D72C6E02D0928012002C50000AD8A458
:042720001200F9D7D3
:020000040020DA
:08000000FFFFFFFFFFFFFFFF00
:020000040030CA
:0E00000020023F1EFF8181FF0FC00FE00F4066
:00000001FF
