:040000000BEF00F012
:100008005682FACF1EF0FBCF1FF036ED0FF015EF3A
:0200180013F0E3
:1008000000C30809083D086B0834034D0069006304
:100810000072006F006300680069007000200054DF
:10082000006500630068006E006F006C006F006779
:10083000007900200049006E0063002E002E035353
:100840000069006D0070006C0065002000480049E0
:1008500000440020004400650076006900630065E4
:10086000002000440065006D006F000902290001AE
:100870000100C03209040000020300000009211138
:10088000010001221D000705810340000107050149
:10089000034000010600FF0901A1011901294015CB
:1008A0000026FF007508954081001901294091003C
:1008B000C01201000200000008D8043F000200013D
:1008C000020001040309040004012205D8A411D088
:1008D000040120511F0B0009D8A40BD000016B8F1D
:1008E000030E04012119D8A402D0010E01D0000E7C
:1008F000426E04012251D8A41200040120511F0BA2
:10090000020AD8A41200040124510F0B0009D8B424
:100910001200040124510F0B166E020E1660120015
:10092000200E00018219D8A4120000016B8F04016F
:1009300024BF1BD0040124510F0B166E1650020D5C
:10094000720EF324D96E000EF420DA6EDECF1AF0A8
:10095000DDCF1BF0040124510F0B166E1650010D54
:100960007C0EF324D96E000E1AD0040124510F0B13
:10097000166E1650020D6E0EF324D96E000EF42082
:10098000DA6EDECF1AF0DDCF1BF0040124510F0B1D
:10099000166E1650010D7A0EF324D96E000EF42057
:1009A000DA6EDF50196E19B002D01A9401D01A8491
:1009B000040124BF0BD0040124510F0B166E1650F6
:1009C000020D720EF324D96E000E0AD004012451D8
:1009D0000F0B166E1650020D6E0EF324D96E000E1C
:1009E000F420DA6E1AC0DEFF1BC0DDFF030E040127
:1009F0002119D8A42FD01AC0D9FF1BC0DAFFDFAE4F
:100A00001CD0040124BF0BD0040124510F0B166E1F
:100A10001650010D7C0EF324D96E000E0AD004018D
:100A200024510F0B166E1650010D7A0EF324D96E59
:100A3000000EF420DA6E0001DF821AC0D9FF1BC05D
:100A4000DAFF000EDB841AC0D9FF1BC0DAFF000EEC
:100A5000DB8E1200040E1A1A1AC0D9FF1BC0DAFF6F
:100A6000DFAE1BD01AC0D9FF1BC0DAFF7F0EDF1626
:100A70001AC0D9FF1BC0DAFF000EDB8C000E0F6E10
:100A8000050E0E6E1AC010F01BC011F0000E136E92
:100A9000020E126E6FEC0FF006D01AC0D9FF1BC009
:100AA000DAFF000EDB8C040E1A1A19B206D01AC037
:100AB000D9FF1BC0DAFFDFAE31D0040124BF0BD059
:100AC000040124510F0B166E1650010D7C0EF324F9
:100AD000D96E000E0AD0040124510F0B166E165069
:100AE000010D7A0EF324D96E000EF420DA6E0001A7
:100AF000DF921AC0D9FF1BC0DAFF3B0EDF16000ED3
:100B00000F6E050E0E6E1AC010F01BC011F0000E15
:100B1000136E020E126E6FEC0FF006D01AC0D9FFE2
:100B20001BC0DAFF3B0EDF16040124510F0B166EBB
:100B30001650010D700EF324176E0F0EF420186E70
:100B400017C0D9FF18C0DAFFFE0EDF161200A09AF8
:100B5000000E6A6E000E686E000E706E710E00015F
:100B6000836F0F0E0001846F000E0001866F000E70
:100B7000856F000E0001886F010E876F5CEC12F02C
:100B8000160E6F6E9F0E6B6E7B0E696E000E00016F
:100B90008B6F070E00018B6501D010D000018B51C7
:100BA000040D000EF324D96E040EF420DA6EDE6A12
:100BB000DE6ADE6ADD6A00018B2BEBD76D8C000EDE
:100BC0006E6E6D986D9C6896000E00016B6F000E46
:100BD0000001636F000E0001656F000E646F68B660
:100BE000F2D7010E486E010E496E000E456E000EE2
:100BF000466E000E446E000E00018B6F010E000168
:100C00008B6501D033D000018B51020D6E0EF324A1
:100C1000D96E000EF420DA6E000EDE6E000EDD6E70
:100C200000018B51020D720EF324D96E000EF420D8
:100C3000DA6E000EDE6E000EDD6E00018B51010DCE
:100C40007A0EF324D96E000EF420DA6E000EDF6EF9
:100C500000018B51010D7C0EF324D96E000EF4209F
:100C6000DA6E000EDF6E00018B2BC8D7080E000174
:100C70006E6F040E00016F6F160E706E040E04018D
:100C8000036F200E026F080E0401016F040E0401B1
:100C9000006F0401008F000E516E000E2C6E000ECE
:100CA0002D6E000E2E6E000E2F6E000E4B6E000E7F
:100CB0000001826F12000001785100017911D8B44F
:100CC00089D078C0D9FF79C0DAFF0001DFBE1200F9
:100CD00081D001C57EF000017F6B02C580F000016C
:100CE000816B7EC083F07FC084F00DEC11F080C07A
:100CF00083F081C084F0E7EC10F003C541F004C537
:100D000043F041C04FF043C050F04F0E0001836FDD
:100D1000000E0001846F01EC13F06AD000017651DF
:100D200000017711D8B407D076C0D9FF77C0DAFFB9
:100D30000001DFBE5DD0810E0501406F010E74EC35
:100D400011F00009D8A402D0010E01D0000E050157
:100D5000416F010E0001836F400E0001846F050E8C
:100D60000001856F400E0001866F010E5BEC0BF0F9
:100D70002CD00001765100017711D8B407D076C08D
:100D8000D9FF77C0DAFF0001DFBE32D0000EBDEC24
:100D900010F083C08AF084C08BF0370E0501406FDD
:100DA0008AC041F500018B510501426F010E00011F
:100DB000836F400E0001846F050E0001856F400EA9
:100DC0000001866F010E5BEC0BF083C076F084C0EF
:100DD00077F00ED005010051370AD8B4CAD7630A9C
:100DE000D8B477D7D40AD8B403D0010AD8B496D7E8
:100DF000000E0001836F000E0001846F050E0001DC
:100E0000856F400E0001866F010E5BEC0BF083C016
:100E100078F084C079F01200A09A000E6A6E000E7D
:100E2000686E000E706E710E016E0F0E026E000E77
:100E3000046E000E036E000E066E010E056ED6ECFB
:100E400012F0160E6F6E9F0E6B6E7B0E696E000EAB
:100E5000096E070E096401D00ED00950040D000E72
:100E6000F324D96E040EF420DA6EDE6ADE6ADE6ADE
:100E7000DD6A092AEED76D8C000E6E6E6D986D9C42
:100E80006896000E00016B6F000E0001636F000E8C
:100E90000001656F000E646F68B6F2D7010E486EF0
:100EA000010E496E000E456E000E466E000E446E39
:100EB000000E096E010E096401D02ED00950020DFA
:100EC0006E0EF324D96E000EF420DA6E000EDE6E84
:100ED000000EDD6E0950020D720EF324D96E000E65
:100EE000F420DA6E000EDE6E000EDD6E0950010D8C
:100EF0007A0EF324D96E000EF420DA6E000EDF6E47
:100F00000950010D7C0EF324D96E000EF420DA6E28
:100F1000000EDF6E092ACED7080E00016E6F040E98
:100F200000016F6F160E706E040E0401036F200E29
:100F3000026F080E0401016F040E0401006F04012A
:100F4000008F000E516E000E2C6E000E2D6E000EE6
:100F50002E6E000E2F6E000E4B6E000E0001826F83
:100F60001200800E04012019D8A41200C00E000146
:100F70006B6F89D0B10E0001686F080E0001696FB8
:100F8000000E00016D6F120E6C6F120004012251F1
:100F9000D8A444D004012251020D070EF324F66EAA
:100FA000080EF420F76E0900F5CF68F00A00F5CFBF
:100FB00069F0020E00016825016E000E0001692132
:100FC000026E01C0F6FF02C0F7FFF86A070EF76471
:100FD00003D00800F55005D0F6CFE9FFF7CFEAFFC0
:100FE000EF5000016C6F030E00016825016E000ECA
:100FF00000016921026E01C0F6FF02C0F7FFF86A26
:10100000070EF76403D00800F55005D0F6CFE9FFCE
:10101000F7CFEAFFEF5000016D6F1200000E0001E4
:101020006B6F1200030E0401226125D004012251CE
:10103000020D010EF324F66E080EF420F76E09007F
:10104000F5CF68F00A00F5CF69F068C0F6FF69C017
:10105000F7FFF86A070EF76403D00800F55005D0D3
:10106000F6CFE9FFF7CFEAFFEF50016E0150000124
:101070006C6F6D6B1200000E00016B6F1200000EA2
:1010800000016B6F120004012351010AD8B472D71A
:10109000030AD8B47BD7010AD8B4C4D7F0D700016B
:1010A0008205D8B46DBA07D0000E686E6980698871
:1010B000020E0001826F68B469A403D0689490ECBA
:1010C00012F06DA202D0A19A120068B069A007D0F8
:1010D0000CEC07F0A08A040E0001826F689068B8DB
:1010E00069A802D0C0EC12F068AC1AD069AC0ED07E
:1010F000000E0F6E730E0E6E000E106E000E116E4F
:10110000000E136E010E126E6FEC0FF0689C3BEC3C
:1011100013F04A50D8A44A064A50D8B494EC0CF0C4
:1011200068BA69AA02D033EC11F068B269A20FD094
:101130007F0E0F6E0E68000E106E000E116E000E08
:10114000136E010E126E6FEC0FF0000E6A6E040E3D
:101150000001826102D0A19A120069A639D0000E66
:101160001D6E030E1D6401D033D068A631D06CCF44
:1011700053F05330E832E8320F0B4D6E689653B49B
:1011800007D04D50010D7C0EF324D96E000E06D011
:101190004D50010D7A0EF324D96E000EF420DA6E54
:1011A0000001DF704D50D8A403D0A7EC0EF00ED094
:1011B000000E0F6E720E0E6E530E106E000E116E3C
:1011C000000E136E000E126E6FEC0FF01D2AC9D7C1
:1011D000A19A120020EE01F03A50D9263B50DA22B3
:1011E000DF50026E02500001645D000E6559D8A008
:1011F00064C002F002500001645F000E655B000EE7
:10120000016E12D00150010D280EF324D96E040E88
:10121000F420DA6E60C0E1FF61C0E2FFDFCFE7FFDC
:101220000001604B612B012A0250015CD8A0EAD773
:101230000001645100016511D8B432D020EE01F0F4
:101240003C50D9263D50DA22080EDF6E20EE02F027
:101250003C50D9263D50DA22280EDE6E040EDD6E9B
:101260003AC0D9FF3BC0DAFFDFBC0DD03CC0D9FF8C
:101270003DC0DAFF480EDF6E3CC0D9FF3DC0DAFF4B
:10128000000EDB8E12003CC0D9FF3DC0DAFF080E15
:10129000DF6E3CC0D9FF3DC0DAFF000EDB8E1200CE
:1012A00020EE01F03C50D9263D50DA22080EDF6EC8
:1012B00020EE02F03C50D9263D50DA22200EDE6EA0
:1012C000040EDD6E3CC0D9FF3DC0DAFF040EDF6EB8
:1012D0003CC0D9FF3DC0DAFF000EDB8E0001639FEA
:1012E0004750D8A4120094EC0CF0120004012051D5
:1012F0001F0BE806D8A4120004012451D8A4120040
:10130000060E04012119D8B41FD027D05104D8A447
:1013100024D07D0E0001686F080E0001696F000E79
:1013200000016D6F090E0ED0C00E00016B6F15D05D
:10133000940E0001686F080E0001696F000E000135
:101340006D6F1D0E6C6FF0D704012351210AD8B4C4
:10135000DDD7030AD8B4ECD7010A04012039E832FA
:10136000030BE806D8A412002AD0550E0001686FBE
:10137000000E0001696F000E00016D6F010E6C6FB1
:10138000C10E00016B6F1200800E00016B6F23C451
:1013900055F01200540E0001686F000E0001696FD5
:1013A000000E00016D6F010E6C6F810E00016B6FFE
:1013B0001200800E00016B6F22C454F01200040171
:1013C0002151010AD8B41200030AD8B4CED7010AB9
:1013D000D8B4E0D70A0AD8B41200030AD8B4D4D7D4
:1013E000010AD8A41200E5D76D9800016BBF39D06F
:1013F000000163AF0BD0020E4C6E4650D8B40EEC19
:101400000EF0000E496E000E486E120020EE01F044
:101410003C50D9263D50DA22080EDF6E20EE02F055
:101420003C50D9263D50DA22200EDE6E040EDD6ED1
:101430003CC0D9FF3DC0DAFF0C0EDF6E3CC0D9FFC7
:101440003DC0DAFF000EDB8E6EC0D9FF6FC0DAFF41
:10145000040EDF6E6EC0D9FF6FC0DAFF000EDB8EA8
:101460001200040120AF10D0010E4C6E4550D8B4CC
:101470000EEC0EF0000E496E000E486E4750D8A4D8
:10148000120094EC0CF01200020E4C6E20EE01F0F3
:101490003C50D9263D50DA22080EDF6E20EE02F0D5
:1014A0003C50D9263D50DA22200EDE6E040EDD6E51
:1014B0003CC0D9FF3DC0DAFF040EDF6E3CC0D9FF4F
:1014C0003DC0DAFF000EDB8E000E496E000E486E46
:1014D0004750D8A4120094EC0CF0120004012039FB
:1014E000E832030B0009D8A4120050D000016B8F22
:1014F000080E0001826F1200B1EC07F01200E8EC58
:101500000AF01200510E0001686F000E0001696FB1
:1015100000016B81010E00016C6F00016B8F1200E6
:10152000F6EC0CF0120064EC04F0120004012451FB
:10153000010D520EF3240001686F000EF42000012B
:10154000696F00016B81010E00016C6F00016B8FF0
:10155000120000016B8F04012451010D520EF3247F
:10156000D96E000EF420DA6E22C4DFFF1200000EE6
:101570000F6E020E0E6E000E106E000E116E000E3B
:10158000136E000E126E6FEC0FF012000401215169
:10159000000AD8B4C5D7010AD8B4C5D7020AD8B44E
:1015A000C2D7060AD8B4A2D7030AD8B4A5D7010A6D
:1015B000D8B4DDD70F0AD8B4A5D7010AD8B49FD7BD
:1015C000030AD8B4B3D7010AD8B4C3D7070A1200A4
:1015D00000016B8F710E016E0F0E026E000E046E15
:1015E000000E036E000E066E010E056ED6EC12F0B4
:1015F000000E016E040E026E000E046E000E036EED
:10160000000E066E200E056ED6EC12F06D8C000EEC
:10161000166E010E166401D016D01650010D7A0E0A
:10162000F324D96E000EF420DA6E000EDF6E165031
:10163000010D7C0EF324D96E000EF420DA6E000E3C
:10164000DF6E162AE6D7520E016E000E026E000EF5
:10165000046E000E036E000E066E010E056ED6ECD3
:1016600012F06D9C080E00016E6F040E00016F6F8A
:10167000000E3A6E040E3B6E3AC03CF03BC03DF0AB
:1016800022C451F05150D8A404D0100E0001826F32
:101690001200000E0F6E010E0E6E510E106E000E37
:1016A000116E000E136E010E126E6FEC0FF0200E15
:1016B0000001826F12000001876F00018351000159
:1016C000D8B408D000018751020D6E0EF324D96EF4
:1016D000000E07D000018751020D720EF324D96E5F
:1016E000000EF420DA6EDECF88F0DDCF89F0000145
:1016F000885100018911D8A407D0000E0001836F22
:10170000000E0001846F1200000120EE02F08851EB
:10171000D9268951DA2284C0DEFF85C0DDFF0001B1
:1017200020EE01F08851D9268951DA2286C0DFFFE8
:1017300088C0D9FF89C0DAFF400EDF1688C0D9FF04
:1017400089C0DAFF000EDB8688C0D9FF89C0DAFFC6
:10175000000EDB8E000183510001D8B408D00001D7
:101760008751020D6E0EF324D96E000E07D00001D2
:101770008751020D720EF324D96E000EF420DA6E3A
:10178000040EDF1A88C083F089C084F01200080EAE
:10179000016E00016D5111E1080E00016C5DD8B0C1
:1017A0000CD06CC001F04E50D8A402D0010E04D071
:1017B0004E04D8A402D0020E4E6E015000016C5FA0
:1017C000000E6D5B000120EE01F06E51D9266F51C5
:1017D000DA2201C0DFFF280E3E6E040E3F6E0001CC
:1017E0006BA11CD03AD068C0F6FF69C0F7FFF86A59
:1017F0003EC0D9FF3FC0DAFF070EF76403D00800F0
:10180000F55005D0F6CFE9FFF7CFEAFFEF50DF6ED6
:101810000001684B692B3E4A3F2A01060150D8B4AB
:101820001200E1D768C0F6FF69C0F7FFF86A3EC052
:10183000D9FF3FC0DAFF070EF76403D00800F55068
:1018400005D0F6CFE9FFF7CFEAFFEF50DF6E0001DA
:10185000684B692B3E4A3F2A01060150D8B412005A
:10186000E1D76EC0D9FF6FC0DAFF0001000EDFBC08
:10187000010E026E040E00016E1B080E000182199B
:10188000D8A40CD0040122517F0B6E6E6E50D8B4D8
:1018900002D0100E01D0040E0001826F4C04D8A4B7
:1018A0003BD0000120EE02F06E51D9266F51DA22B2
:1018B000280EDE6E040EDD6EC7EC0BF0020E4E1825
:1018C000D8A40DD06EC0D9FF6FC0DAFF040EDF6E52
:1018D0006EC0D9FF6FC0DAFF000EDB8E120002501F
:1018E000D8A40DD06EC0D9FF6FC0DAFF480EDF6EEE
:1018F0006EC0D9FF6FC0DAFF000EDB8E12006EC023
:10190000D9FF6FC0DAFF080EDF6E6EC0D9FF6FC05F
:10191000DAFF000EDB8E1200000163AF02D000017F
:10192000639F000E4C6E12004850D8A41200010EA6
:10193000486E4950D8A41200010E496E020E4C1890
:10194000D8A416D0000120EE01F06E51D9266F51B7
:10195000DA22000EDF6E6EC0D9FF6FC0DAFF480ECC
:10196000DF6E6EC0D9FF6FC0DAFF000EDB8E120093
:101970004C04D8A41200000E406E20EE01F03A5044
:10198000D9263B50DA22080EDF6E20EE02F03A50E4
:10199000D9263B50DA22200EDE6E040EDD6E3AC0F0
:1019A000D9FF3BC0DAFF040EDF6E3AC0D9FF3BC05F
:1019B000DAFF000EDB8E010E406E20EE01F03C508F
:1019C000D9263D50DA22080EDF6E20EE02F03C50A0
:1019D000D9263D50DA22200EDE6E040EDD6E3CC0AC
:1019E000D9FF3DC0DAFF800EDF6E1200000E040149
:1019F000286F000E0401296F3DD000016B8F040198
:101A000028814204D8A442D0040128833FD0000199
:101A10006B8F3CD000016B8F040124BF0BD00401FD
:101A200024510F0B016E0150020D720EF324D96E7A
:101A3000000E0AD0040124510F0B016E0150020D5B
:101A40006E0EF324D96E000EF420DA6EDECF02F0B3
:101A5000DDCF03F002C0D9FF03C0DAFFDFAE16D03E
:101A600002C0D9FF03C0DAFFDFA410D0010E0401C9
:101A7000286F0CD0040120511F0B000AD8B4BDD729
:101A8000010AD8B4C4D7030AD8B4C4D700016BAFD5
:101A90001200280E0001686F040E0001696F00013A
:101AA0006B81020E00016C6F1200056E0150D8B4FC
:101AB00007D00550020D6E0EF324D96E000E06D02D
:101AC0000550020D720EF324D96E000EF420DA6E6A
:101AD000DECF06F0DDCF07F006500710D8A405D002
:101AE000000E016E000E026E120020EE02F0065093
:101AF000D9260750DA2202C0DEFF03C0DDFF20EE48
:101B000001F00650D9260750DA2204C0DFFF06C0D4
:101B1000D9FF07C0DAFF400EDF1606C0D9FF07C0A5
:101B2000DAFF000EDB8606C0D9FF07C0DAFF000E21
:101B3000DB8E0150D8B407D00550020D6E0EF32491
:101B4000D96E000E06D00550020D720EF324D96E28
:101B5000000EF420DA6E040EDF1A06C001F007C092
:101B600002F01200324A332A344A352A364A372ADA
:101B7000384A392A335003E13228D8A004D0000E65
:101B8000336E000E326E355003E13428D8A004D0F5
:101B9000000E356E000E346E375003E13628D8A0A3
:101BA00004D0000E376E000E366E395003E138282F
:101BB000D8A004D0000E396E000E386E32C083F00B
:101BC00033C084F00DEC11F034C083F035C084F0E4
:101BD000E7EC10F036C041F038C043F041C04FF0A0
:101BE00043C050F04F0E0001836F000E0001846F60
:101BF00001EC13F0000E0001876F00018751000116
:101C0000D8A41200410E0001866FEE0EE82EFED71A
:101C1000862FFCD700D00001872BEFD7000E456E32
:101C2000000E466E020E4C18D8A41FD020EE01F014
:101C30003C50D9263D50DA22080EDF6E20EE02F02D
:101C40003C50D9263D50DA22280EDE6E040EDD6EA1
:101C50003CC0D9FF3DC0DAFF480EDF6E3CC0D9FF63
:101C60003DC0DAFF000EDB8E120000016C51040152
:101C7000265D00016D5104012759D8B004D026C457
:101C80006CF027C46DF0C7EC0BF0000120EE02F001
:101C90006E51D9266F51DA22280EDE6E040EDD6EEB
:101CA0006EC0D9FF6FC0DAFF480EDF6E6EC0D9FF7D
:101CB0006FC0DAFF000EDB8E1200066E000E076E9C
:101CC000040E086E0150026E036AD8900236033685
:101CD0000650046E056AD89004360536D89004364E
:101CE00005360250042603500522D89004360536E6
:101CF000D89004360536045007260550082207C040
:101D0000D9FF08C0DAFFDF9E0150D8A407D00650E3
:101D1000020D720EF324D96E000E06D00650020D8D
:101D20006E0EF324D96E000EF420DA6E07C0DEFFCB
:101D300008C0DDFF07C0D9FF08C0DAFFDF9C20EE36
:101D400004F00750D9260850DA22DF8C12002D0E3D
:101D50004A6E53C01CF0FD0E1C16D8A438D053C0D8
:101D60001CF0D8901C323F0E1C161C50040D000EA7
:101D7000F3243A6E040EF4203B6E3AC03CF03BC0B4
:101D80003DF0040E3C1A3AC0D9FF3BC0DAFFDF3009
:101D9000E8320F0B0D0AD8A417D0200E016E040EE6
:101DA000026E20EE02F03A50D9263B50DA22DECF06
:101DB00003F0DDCF04F0000E066E080E056E54EC45
:101DC00011F0EFEC0EF0120038EC10F0120053504E
:101DD000FD0B040AD8A4120031EC0CF01200000E26
:101DE0004E6E000E476E000E456E000E466E000EE3
:101DF000406E000E4C6E6EC0D9FF6FC0DAFF7F0ED2
:101E0000DF16040E00016E1B6EC0D9FF6FC0DAFF33
:101E10007F0EDF16040E00016E1B3CC0D9FF3DC0D3
:101E2000DAFF7F0EDF16000E00016B6F000E00015F
:101E30006D6F000E6C6F000E0001636F000E0001ED
:101E4000656F000E646F6EEC0AF0000E0F6E030EED
:101E50000E6E000E106E000E116E000E136E000E50
:101E6000126E6FEC0FF0F4EC09F012000600E9CFEF
:101E700020F0EACF21F0E1CF22F0E2CF23F0D9CF5A
:101E800024F0DACF25F0F3CF26F0F4CF27F0F6CF09
:101E900028F0F7CF29F0F8CF2AF0F5CF2BF04FEC50
:101EA00008F02BC0F5FF2AC0F8FF29C0F7FF28C0B3
:101EB000F6FF27C0F4FF26C0F3FF25C0DAFF24C0D9
:101EC000D9FF23C0E2FF22C0E1FF21C0EAFF20C00A
:101ED000E9FF1FC0FBFF1EC0FAFF569211000ED093
:101EE000010E66EC10F01200020E66EC10F012000B
:101EF00009EC10F0120076EC09F012000EC014F09C
:101F00000FC015F01550000AD8B404D07F0AD8A429
:101F100012001AD01450010AD8B4EAD7030AD8B470
:101F20001200010AD8B4E7D7060AD8B41200770A1B
:101F3000D8B41200010AD8B41200070AD8B4D4D712
:101F4000010AD8A41200CCD71450FF0A12000001D5
:101F5000876F25D0020E09EC12F0020E0001836F8C
:101F6000000E0001846F010ED9EC0FF0A9EC12F005
:101F7000820E0001866FDE0EE82EFED7862FFCD77C
:101F8000020EECEC11F0820E0001866FDE0EE82EE0
:101F9000FED7862FFCD7020EECEC11F012000001E8
:101FA0008751000AD8B4D6D7010AD8B41200030A60
:101FB00012000001856F3F0EC716000EC66E0001AD
:101FC0008551C61200018451C71205D0C78C14D0A8
:101FD000C78CC68811D000018351000AD8B4F6D747
:101FE000020AD8B4F5D7010AD8B4F3D705D0928A3B
:101FF00093820BD0939209D000018551040AD8B482
:10200000F6D7010AD8B4F4D7F5D79380949EC68A40
:102010001200000E0001766F000E0001776F1E0E99
:10202000096E010ECEEC11F0000E016E000E026E74
:10203000050E036E400E046E010E55EC0DF001C04E
:1020400078F002C079F0820E0D6EDE0EE82EFED71B
:102050000D2EFCD7020E41EC12F0820E0D6EDE0E3C
:10206000E82EFED70D2EFCD7020E41EC12F0120026
:10207000020E4C18D8A403D0EAEC08F01200000EAF
:102080004C6E4050D8A41FD020EE01F03C50D92611
:102090003D50DA22080EDF6E20EE02F03C50D926C9
:1020A0003D50DA22200EDE6E040EDD6E3CC0D9FFFC
:1020B0003DC0DAFF0C0EDF6E3CC0D9FF3DC0DAFF39
:1020C000000EDB8E1200000E406E1200056E21D055
:1020D000020E26EC12F0020E016E000E026E010ED0
:1020E00092EC10F0ECEC12F0820E046EDE0EE82E94
:1020F000FED7042EFCD7020E41EC12F0820E046EC5
:10210000DE0EE82EFED7042EFCD7020E41EC12F0B4
:1021100012000550000AD8B4DBD7010AD8B4120067
:10212000030A1200036E3F0EC716000EC66E035060
:10213000C6120250C71205D0C78C13D0C78CC688F0
:1021400010D00150000AD8B4F7D7020AD8B4F6D795
:10215000010AD8B4F4D705D0928A93820AD0939218
:1021600008D00350040AD8B4F7D7010AD8B4F5D779
:10217000F6D79380949EC68A12000001886F04D01F
:10218000000183698469120000018851000AD8A403
:10219000F7D788C085F0000185478547C250000108
:1021A0008519C30B8519C26EC282C2B2FED7C4CFD5
:1021B00086F00001876B00018651876F866BC350E4
:1021C0000001861386C083F087C084F0120083C0AC
:1021D00085F0010E000185170001853BBA50000112
:1021E0008519EF0B8519BA6E0001D89084338333BB
:1021F00083C085F0010E000185170001853B8547EE
:10220000BA5000018519DF0B8519BA6E0001D8900C
:102210008433833383C0BBFF120083C085F0010E7B
:10222000000185170001853BBD5000018519EF0BAA
:102230008519BD6E0001D8908433833383C085F047
:10224000010E000185170001853B8547BD50000147
:102250008519DF0B8519BD6E0001D8908433833357
:1022600083C0BEFF120070A01DD03AC0D9FF3BC092
:10227000DAFF800EDE18D8A414D06EC0D9FF6FC06C
:10228000DAFF840EDE18D8A40CD03AC0D9FF3BC0C8
:10229000DAFF0C0EDF6E3AC0D9FF3BC0DAFF000E4A
:1022A000DB8E7090689A120003C009F004C00AF037
:1022B00001C007F002C008F00ED009C0D9FF0AC063
:1022C000DAFF07C0E1FF08C0E2FFDFCFE7FF094AFE
:1022D0000A2A074A082A0506D8A006060528EDE1BD
:1022E0000628D8B41200E9D70001836F0ED081B858
:1022F00002D0010E1200000E120081BA02D0010EAF
:102300001200000E1200000E120000018351000A9C
:10231000D8B4F9D7010AD8B4EAD7030AD8B4EDD7AC
:10232000000E120001C003F0010E0316033ABA506A
:102330000318EF0B0318BA6ED8900232013201C0B5
:1023400003F0010E0316033A0346BA500318DF0BDD
:102350000318BA6ED8900232013201C0BBFF1200DE
:1023600001C003F0010E0316033ABD500318EF0B32
:102370000318BD6ED8900232013201C003F0010E85
:102380000316033A0346BD500318DF0B0318BD6E56
:10239000D8900232013201C0BEFF12000C6E09A4B7
:1023A00005D0000E016E0C505DEC0EF009A205D0B8
:1023B000010E016E0C505DEC0EF00C50010D700E14
:1023C000F3240A6E0F0EF4200B6E0AC0D9FF0BC067
:1023D000DAFF09C0DFFF12000001836F08D08A70A6
:1023E00012008A7412008A7412008A7612000001A8
:1023F0008351000AD8B41200010AD8B4F0D7030AF6
:10240000D8B4EFD7010AD8B4EED7070AD8A412007F
:10241000ECD70001836F08D09390120093941200C0
:10242000939412009396120000018351000AD8B4CD
:102430001200010AD8B4F0D7030AD8B4EFD7010AC2
:10244000D8B4EED7070AD8A41200ECD7016E08D092
:10245000939012009394120093941200939612009A
:102460000150000AD8B41200010AD8B4F1D7030A07
:10247000D8B4F0D7010AD8B4EFD7070AD8A412000D
:10248000EDD7016E08D08A7012008A7412008A7427
:1024900012008A7612000150000AD8B41200010A14
:1024A000D8B4F1D7030AD8B4F0D7010AD8B4EFD71B
:1024B000070AD8A41200EDD783C089F084C08AF03F
:1024C00009D089C0D9FF8AC0DAFF85C0DFFF0001CB
:1024D000894B8A2B00018707D8A08807000187292C
:1024E000F0E100018829D8B41200EBD70001825135
:1024F000D8A41200000E6D6E000E696E160E6F6E7F
:102500009F0E6B6E7B0E696ED08EA28AA08AF28EB1
:1025100001D06D866DA6FDD7010E0001826F1200FD
:10252000000E446E000E0F6E740E0E6E000E106ED6
:10253000000E116E000E136E000E126E6FEC0FF097
:102540006D92699401D0689468B4FDD7000E4B6E0B
:102550001200CB68000E0001846F83690DEC11F04E
:10256000000E0001846F8369E7EC10F0949294945C
:10257000CA80CA82CA84BD86BD84BA86BA84120063
:10258000698468986D82010E446E000E4B6E000ED9
:102590000F6E750E0E6E000E106E000E116E000E98
:1025A000136E000E126E6FEC0FF0120001C007F0F8
:1025B00002C008F008D007C0D9FF08C0DAFF03C086
:1025C000DFFF074A082A0506D8A006060528F3E11A
:1025D0000628D8B41200EFD7CB68000E026E01684F
:1025E000B0EC11F0000E026E016892EC11F09492C2
:1025F0009494CA80CA82CA84BD86BD84BA86BA84CD
:1026000012000BD083C0D9FF84C0DAFFDF50C96E3F
:102610000001834B842BC7A0FED783C0D9FF84C0A1
:10262000DAFFDF50D8B41200EDD700EE60F0230ED1
:10263000EE6AE806FDE100EE2CF02A0EEE6AE806EE
:10264000FDE156905692000EF86E000128EF13F04F
:10265000000EA7EC0FF0A7EC05F076EC12F0200EC0
:102660000001826103D0B2EC0DF0F9D76DB2F7D75B
:102670005BEC06F0F4D7010E2C26000E2D222E2244
:102680002F224450D8A412004B2A4B50D8A4120039
:042690004B68120081
:020000040020DA
:08000000FFFFFFFFFFFFFFFF00
:020000040030CA
:0E00000020023F1EFF8181FF0FC00FE00F4066
:00000001FF
