:040000000BEF00F012
:100008005682FACF48F0FBCF49F0A7ED0EF092EFF9
:0200180011F0E5
:1008000000C30809083D086B0834034D0069006304
:100810000072006F006300680069007000200054DF
:10082000006500630068006E006F006C006F006779
:10083000007900200049006E0063002E002E035353
:100840000069006D0070006C0065002000480049E0
:1008500000440020004400650076006900630065E4
:10086000002000440065006D006F000902290001AE
:100870000100C03209040000020300000009211138
:10088000010001221D000705810340000107050149
:10089000034000010600FF0901A1011901294015CB
:1008A0000026FF007508954081001901294091003C
:1008B000C01201000200000008D8043F000200013D
:1008C000020001040309040004012205D8A410D089
:1008D000040120511F0B0009D8A40AD00C8E030E6E
:1008E00004012119D8A402D0010E01D0000E1C6E03
:1008F00004012251D8A41200040120511F0B020A46
:10090000D8A41200040124510F0B0009D8B412001E
:10091000040124510F0B406E020E40601200200EA5
:100920002118D8A412000C8E040124BF1BD004018E
:1009300024510F0B406E4050020D640EF324D96E0B
:10094000000EF420DA6EDECF44F0DDCF45F0040176
:1009500024510F0B406E4050010D150EF324D96E3B
:10096000000E1AD0040124510F0B406E4050020DAE
:100970000F0EF324D96E000EF420DA6EDECF44F0B1
:10098000DDCF45F0040124510F0B406E4050010DA6
:10099000130EF324D96E000EF420DA6EDF50436E8E
:1009A00043B002D0449401D04484040124BF0BD04E
:1009B000040124510F0B406E4050020D640EF324CD
:1009C000D96E000E0AD0040124510F0B406E405026
:1009D000020D0F0EF324D96E000EF420DA6E44C01F
:1009E000DEFF45C0DDFF030E04012119D8A42ED07F
:1009F00044C0D9FF45C0DAFFDFAE1BD0040124BFDD
:100A00000BD0040124510F0B406E4050010D150E08
:100A1000F324D96E000E0AD0040124510F0B406E4E
:100A20004050010D130EF324D96E000EF420DA6E3F
:100A3000DF8244C0D9FF45C0DAFF000EDB8444C02A
:100A4000D9FF45C0DAFF000EDB8E1200040E441AF7
:100A500044C0D9FF45C0DAFFDFAE1BD044C0D9FF88
:100A600045C0DAFF7F0EDF1644C0D9FF45C0DAFF6C
:100A7000000EDB8C000E396E050E386E44C03AF065
:100A800045C03BF0000E3D6E020E3C6EE0EC0EF0F9
:100A900006D044C0D9FF45C0DAFF000EDB8C040E3F
:100AA000441A43B206D044C0D9FF45C0DAFFDFAED6
:100AB00030D0040124BF0BD0040124510F0B406E31
:100AC0004050010D150EF324D96E000E0AD004011A
:100AD00024510F0B406E4050010D130EF324D96EBC
:100AE000000EF420DA6EDF9244C0D9FF45C0DAFF71
:100AF0003B0EDF16000E396E050E386E44C03AF01C
:100B000045C03BF0000E3D6E020E3C6EE0EC0EF078
:100B100006D044C0D9FF45C0DAFF3B0EDF16040102
:100B200024510F0B406E4050010D700EF324416EA6
:100B30000F0EF420426E41C0D9FF42C0DAFFFE0E14
:100B4000DF161200A09A000E6A6E000E686E000E8C
:100B5000706E710E00017C6F0F0E00017D6F000E34
:100B600000017F6F000E7E6F000E0001816F010E8D
:100B7000806FD7EC10F0160E6F6E9F0E6B6E7B0EB3
:100B8000696E000E0001846F070E0001846501D0BC
:100B900010D000018451040D000EF324D96E040E10
:100BA000F420DA6EDE6ADE6ADE6ADD6A0001842B1A
:100BB000EBD76D8C000E6E6E6D986D9C6896000E76
:100BC0000C6E000E046E000E066E000E056E68B60A
:100BD000F5D7010E226E010E236E000E1E6E000E62
:100BE0001F6E000E1D6E000E0001846F010E0001CD
:100BF000846501D033D000018451020D0F0EF3241F
:100C0000D96E000EF420DA6E000EDE6E000EDD6E80
:100C100000018451020D640EF324D96E000EF420FD
:100C2000DA6E000EDE6E000EDD6E00018451010DE5
:100C3000130EF324D96E000EF420DA6E000EDF6E70
:100C400000018451010D150EF324D96E000EF4201D
:100C5000DA6E000EDF6E0001842BC8D7080E0F6E0F
:100C6000040E106E160E706E040E0401036F200E3B
:100C7000026F080E0401016F040E0401006F0401ED
:100C8000008F000E296E000E0001606F000E616F74
:100C9000000E626F000E636F000E256E000E216E57
:100CA0001200A09A000E6A6E000E686E000E706E42
:100CB000710E2C6E0F0E2D6E000E2F6E000E2E6E0E
:100CC000000E316E010E306E68EC11F0160E6F6E74
:100CD0009F0E6B6E7B0E696E000E346E070E3464D1
:100CE00001D00ED03450040D000EF324D96E040E42
:100CF000F420DA6EDE6ADE6ADE6ADD6A342AEED756
:100D00006D8C000E6E6E6D986D9C6896000E0C6E6C
:100D1000000E046E000E066E000E056E68B6F5D766
:100D2000010E226E010E236E000E1E6E000E1F6E4F
:100D3000000E1D6E000E346E010E346401D02ED0F4
:100D40003450020D0F0EF324D96E000EF420DA6E2B
:100D5000000EDE6E000EDD6E3450020D640EF324C4
:100D6000D96E000EF420DA6E000EDE6E000EDD6E1F
:100D70003450010D130EF324D96E000EF420DA6EF8
:100D8000000EDF6E3450010D150EF324D96E000EE7
:100D9000F420DA6E000EDF6E342ACED7080E0F6E06
:100DA000040E106E160E706E040E0401036F200EFA
:100DB000026F080E0401016F040E0401006F0401AC
:100DC000008F000E296E000E0001606F000E616F33
:100DD000000E626F000E636F000E256E000E216E16
:100DE00012002104D8B46DBA06D0000E686E698076
:100DF0006988020E216E68B469A403D068940AEC75
:100E000011F06DA202D0A19A120068B069A006D0BC
:100E100051EC06F0A08A040E216E689068B869A8AB
:100E200002D052EC11F068AC1AD069AC0ED0000EB2
:100E3000396E730E386E000E3A6E000E3B6E000E69
:100E40003D6E010E3C6EE0EC0EF0689CB7EC11F0CC
:100E50002450D8A424062450D8B499EC0BF068BAD6
:100E600069AA02D021EC10F068B269A20FD07F0EFF
:100E7000396E3868000E3A6E000E3B6E000E3D6E05
:100E8000010E3C6EE0EC0EF0000E6A6E040E216066
:100E900002D0A19A120069A638D0000E476E030E48
:100EA000476401D032D068A630D06CCF2BF02B3005
:100EB000E832E8320F0B276E68962BB407D0275024
:100EC000010D150EF324D96E000E06D02750010D2A
:100ED000130EF324D96E000EF420DA6EDF70275063
:100EE000D8A403D09DEC0DF00ED0000E396E720E1A
:100EF000386E2B0E3A6E000E3B6E000E3D6E000EED
:100F00003C6EE0EC0EF0472ACAD7A19A1200800E80
:100F100004012019D8A41200C00E0C6E7CD0B10EB2
:100F2000096E080E0A6E000E0E6E120E0D6E120085
:100F300004012251D8A43ED004012251020D070E13
:100F4000F324F66E080EF420F76E0900F5CF09F0D1
:100F50000A00F5CF0AF0020E09242C6E000E0A20BA
:100F60002D6E2CC0F6FF2DC0F7FFF86A070EF76450
:100F700003D00800F55005D0F6CFE9FFF7CFEAFF20
:100F8000EF500D6E030E09242C6E000E0A202D6EFC
:100F90002CC0F6FF2DC0F7FFF86A070EF76403D0E8
:100FA0000800F55005D0F6CFE9FFF7CFEAFFEF5084
:100FB0000E6E1200000E0C6E1200030E0401226170
:100FC00024D004012251020D010EF324F66E080E06
:100FD000F420F76E0900F5CF09F00A00F5CF0AF00A
:100FE00009C0F6FF0AC0F7FFF86A070EF76403D0DE
:100FF0000800F55005D0F6CFE9FFF7CFEAFFEF5034
:101000002C6E2C500D6E0E6A1200000E0C6E12002B
:10101000000E0C6E120004012351010AD8B47FD7D0
:10102000030AD8B485D7010AD8B4C7D7F1D720EEC0
:1010300001F01750D9261850DA22DF502D6E2D50AE
:10104000055C000E0658D8A005C02DF02D50055E99
:10105000000E065A000E2C6E11D02C50010D280ED9
:10106000F324D96E040EF420DA6E01C0E1FF02C051
:10107000E2FFDFCFE7FF014A022A2C2A2D502C5C29
:10108000D8A0EBD705500610D8B432D020EE01F02E
:101090001950D9261A50DA22080EDF6E20EE02F01F
:1010A0001950D9261A50DA22280EDE6E040EDD6E93
:1010B00017C0D9FF18C0DAFFDFBC0DD019C0D9FFA7
:1010C0001AC0DAFF480EDF6E19C0D9FF1AC0DAFF66
:1010D000000EDB8E120019C0D9FF1AC0DAFF080E0D
:1010E000DF6E19C0D9FF1AC0DAFF000EDB8E1200C6
:1010F00020EE01F01950D9261A50DA22080EDF6EC0
:1011000020EE02F01950D9261A50DA22200EDE6E97
:10111000040EDD6E19C0D9FF1AC0DAFF040EDF6EAF
:1011200019C0D9FF1AC0DAFF000EDB8E049E2050D2
:10113000D8A4120099EC0BF012006D980CBE38D0B8
:1011400004AE0BD0020E266E1F50D8B407EC0DF083
:10115000000E236E000E226E120020EE01F01950D8
:10116000D9261A50DA22080EDF6E20EE02F019504E
:10117000D9261A50DA22200EDE6E040EDD6E19C05A
:10118000D9FF1AC0DAFF0C0EDF6E19C0D9FF1AC0E2
:10119000DAFF000EDB8E0FC0D9FF10C0DAFF040E9D
:1011A000DF6E0FC0D9FF10C0DAFF000EDB8E120019
:1011B000040120AF10D0010E266E1E50D8B407ECEB
:1011C0000DF0000E236E000E226E2050D8A41200E7
:1011D00099EC0BF01200020E266E20EE01F0195071
:1011E000D9261A50DA22080EDF6E20EE02F01950CE
:1011F000D9261A50DA22200EDE6E040EDD6E19C0DA
:10120000D9FF1AC0DAFF040EDF6E19C0D9FF1AC069
:10121000DAFF000EDB8E000E236E000E226E2050D1
:10122000D8A4120099EC0BF012000C8E710E2C6EEB
:101230000F0E2D6E000E2F6E000E2E6E000E316EF4
:10124000010E306E68EC11F0000E2C6E040E2D6E47
:10125000000E2F6E000E2E6E000E316E200E306EC0
:1012600068EC11F06D8C000E406E010E406401D0F0
:1012700016D04050010D130EF324D96E000EF42049
:10128000DA6E000EDF6E4050010D150EF324D96E9C
:10129000000EF420DA6E000EDF6E402AE6D72A0E2A
:1012A0002C6E000E2D6E000E2F6E000E2E6E000E98
:1012B000316E010E306E68EC11F06D9C080E0F6EF1
:1012C000040E106E000E176E040E186E17C019F083
:1012D00018C01AF022C429F02950D8A403D0100E47
:1012E000216E1200000E396E010E386E290E3A6E14
:1012F000000E3B6E000E3D6E010E3C6EE0EC0EF0FB
:10130000200E216E120004012039E832030B00097F
:10131000D8A4120043D00C8E080E216E120087EC68
:1013200007F0120015EC09F01200290E096E000EEC
:101330000A6E0C80010E0D6E0C8E1200B2EC0CF0D9
:10134000120064EC04F0120004012451010D2A0E75
:10135000F324096E000EF4200A6E0C80010E0D6E4F
:101360000C8E12000C8E04012451010D2A0EF32460
:10137000D96E000EF420DA6E22C4DFFF1200000ED8
:10138000396E020E386E000E3A6E000E3B6E000E85
:101390003D6E000E3C6EE0EC0EF012000401215197
:1013A000000AD8B4CBD7010AD8B4CBD7020AD8B434
:1013B000C8D7060AD8B4AFD7030AD8B4B0D7010A41
:1013C000D8B4DDD70F0AD8B4B0D7010AD8B4AAD799
:1013D000030AD8B4B9D7010AD8B4C4D7070A12008F
:1013E000040120511F0BE806D8A412000401245167
:1013F000D8A41200060E04012119D8B418D020D0A8
:101400002904D8A41DD07D0E096E080E0A6E000EA8
:101410000E6E090E0AD0C00E0C6E12D0940E096E1C
:10142000080E0A6E000E0E6E1D0E0D6EF4D704012E
:101430002351210AD8B4E4D7030AD8B4EFD7010A5C
:1014400004012039E832030BE806D8A4120020D0AA
:101450007B0E096E000E0A6E000E0E6E010E0D6EF2
:10146000C10E0C6E1200800E0C6E23C47BF01200B5
:101470007A0E096E000E0A6E000E0E6E010E0D6ED3
:10148000810E0C6E1200800E0C6E22C47AF01200D7
:1014900004012151010AD8B41200030AD8B4D8D7E4
:1014A000010AD8B4E5D70A0AD8B41200030AD8B49E
:1014B000DAD7010AD8A41200E6D70001806F000134
:1014C0007C510001D8B408D000018051020D0F0EEC
:1014D000F324D96E000E07D000018051020D640E76
:1014E000F324D96E000EF420DA6EDECF81F0DDCF6A
:1014F00082F00001815100018211D8A407D0000EB2
:1015000000017C6F000E00017D6F1200000120EED3
:1015100002F08151D9268251DA227DC0DEFF7EC0E1
:10152000DDFF000120EE01F08151D9268251DA223F
:101530007FC0DFFF81C0D9FF82C0DAFF400EDF1617
:1015400081C0D9FF82C0DAFF000EDB8681C0D9FFDF
:1015500082C0DAFF000EDB8E00017C510001D8B49E
:1015600008D000018051020D0F0EF324D96E000E39
:1015700007D000018051020D640EF324D96E000ED5
:10158000F420DA6E040EDF1A81C07CF082C07DF098
:1015900012006CC07CF06DC07DF0FBEC0FF06EC0F3
:1015A0007CF06FC07DF0D5EC0FF070C076F072C0AB
:1015B00077F076C078F077C079F0780E00017C6F14
:1015C000000E00017D6F7EEC11F0000E0001806FB7
:1015D000000180510001D8A40CD0410E00017F6FA2
:1015E000EE0EE82EFED77F2FFCD700D00001802B17
:1015F000EFD700016C4B6D2B00016E4B6F2B000180
:10160000704B712B0001724B732B00016D050001B3
:101610006C11D8A405D0000E00016D6F000E6C6F28
:1016200000016F0500016E11D8A405D0000E000165
:101630006F6F000E6E6F0001710500017011D8A46C
:1016400005D0000E0001716F000E706F0001730570
:1016500000017211D8A41200000E0001736F000E79
:10166000726F1200080E2C6E0E5010E1080E0D5C09
:10167000D8B00CD00DC02CF02850D8A402D0010E48
:1016800004D02804D8A402D0020E286E2C500D5E7F
:10169000000E0E5A20EE01F00F50D9261050DA221B
:1016A0002CC0DFFF280E0001746F040E0001756F5F
:1016B0000CA01CD03AD009C0F6FF0AC0F7FFF86AA8
:1016C00074C0D9FF75C0DAFF070EF76403D00800B5
:1016D000F55005D0F6CFE9FFF7CFEAFFEF50DF6E08
:1016E000094A0A2A0001744B752B2C062C50D8B4D9
:1016F0001200E1D709C0F6FF0AC0F7FFF86A74C00C
:10170000D9FF75C0DAFF070EF76403D00800F55063
:1017100005D0F6CFE9FFF7CFEAFFEF50DF6E094AB9
:101720000A2A0001744B752B2C062C50D8B41200D9
:10173000E1D72250D8A41200010E226E2350D8A463
:101740001200010E236E020E2618D8A415D020EE2A
:1017500001F00F50D9261050DA22000EDF6E0FC0B4
:10176000D9FF10C0DAFF480EDF6E0FC0D9FF10C0DE
:10177000DAFF000EDB8E12002604D8A41200000E41
:101780001B6E20EE01F01750D9261850DA22080EF1
:10179000DF6E20EE02F01750D9261850DA22200E04
:1017A000DE6E040EDD6E17C0D9FF18C0DAFF040E1E
:1017B000DF6E17C0D9FF18C0DAFF000EDB8E010EF6
:1017C0001B6E20EE01F01950D9261A50DA22080EAD
:1017D000DF6E20EE02F01950D9261A50DA22200EC0
:1017E000DE6E040EDD6E19C0D9FF1AC0DAFF800E5E
:1017F000DF6E1200306E2C50D8B407D03050020D7E
:101800000F0EF324D96E000E06D03050020D640E78
:10181000F324D96E000EF420DA6EDECF31F0DDCF86
:1018200032F031503210D8A405D0000E2C6E000ECC
:101830002D6E120020EE02F03150D9263250DA22FD
:101840002DC0DEFF2EC0DDFF20EE01F03150D92685
:101850003250DA222FC0DFFF31C0D9FF32C0DAFFA9
:10186000400EDF1631C0D9FF32C0DAFF000EDB8632
:1018700031C0D9FF32C0DAFF000EDB8E2C50D8B455
:1018800007D03050020D0F0EF324D96E000E06D093
:101890003050020D640EF324D96E000EF420DA6E7F
:1018A000040EDF1A31C02CF032C02DF012000FC030
:1018B000D9FF10C0DAFF000EDFBC010E2D6E040E42
:1018C0000F1A080E2118D8A40BD0040122517F0B47
:1018D0006E6E6E50D8B402D0100E01D0040E216E80
:1018E0002604D8A43AD020EE02F00F50D92610508A
:1018F000DA22280EDE6E040EDD6E32EC0BF0020EE4
:101900002818D8A40DD00FC0D9FF10C0DAFF040EDC
:10191000DF6E0FC0D9FF10C0DAFF000EDB8E1200A1
:101920002D50D8A40DD00FC0D9FF10C0DAFF480E3B
:10193000DF6E0FC0D9FF10C0DAFF000EDB8E120081
:101940000FC0D9FF10C0DAFF080EDF6E0FC0D9FF3D
:1019500010C0DAFF000EDB8E120004BE049E000EE3
:10196000266E1200000E0401286F000E0401296F7C
:1019700038D00C8E1C04D8A440D0040128833DD05C
:101980000C8E3BD00C8E040124BF0BD004012451DB
:101990000F0B2C6E2C50020D640EF324D96E000E2A
:1019A0000AD0040124510F0B2C6E2C50020D0F0E87
:1019B000F324D96E000EF420DA6EDECF2DF0DDCFE9
:1019C0002EF02DC0D9FF2EC0DAFFDFAE16D02DC00D
:1019D000D9FF2EC0DAFFDFA410D0010E0401286F5A
:1019E0000CD0040120511F0B000AD8B4C2D7010A41
:1019F000D8B4C6D7030AD8B4C5D70CAE1200280E87
:101A0000096E040E0A6E0C80020E0D6E1200000E9E
:101A10001E6E000E1F6E020E2618D8A41FD020EED8
:101A200001F01950D9261A50DA22080EDF6E20EE86
:101A300002F01950D9261A50DA22280EDE6E040E52
:101A4000DD6E19C0D9FF1AC0DAFF480EDF6E19C06B
:101A5000D9FF1AC0DAFF000EDB8E12000D50040110
:101A6000265D0E5004012759D8B004D026C40DF0CD
:101A700027C40EF032EC0BF020EE02F00F50D92606
:101A80001050DA22280EDE6E040EDD6E0FC0D9FF74
:101A900010C0DAFF480EDF6E0FC0D9FF10C0DAFFAA
:101AA000000EDB8E1200316E000E326E040E336EAD
:101AB0002C502D6E2E6AD8902D362E3631502F6E2A
:101AC000306AD8902F363036D8902F3630362D5099
:101AD0002F262E503022D8902F363036D8902F36E1
:101AE00030362F5032263050332232C0D9FF33C027
:101AF000DAFFDF9E2C50D8A407D03150020D640EBF
:101B0000F324D96E000E06D03150020D0F0EF324CF
:101B1000D96E000EF420DA6E32C0DEFF33C0DDFF76
:101B200032C0D9FF33C0DAFFDF9C20EE04F0325020
:101B3000D9263350DA22DF8C12002D0E246E2BC0F2
:101B400046F0FD0E4616D8A438D02BC046F0D890EB
:101B500046323F0E46164650040D000EF324176E13
:101B6000040EF420186E17C019F018C01AF0040EF5
:101B7000191A17C0D9FF18C0DAFFDF30E8320F0B8F
:101B80000D0AD8A417D0200E2C6E040E2D6E20EE58
:101B900002F01750D9261850DA22DECF2EF0DDCF12
:101BA0002FF0000E316E080E306E42EC10F029EC72
:101BB0000EF012007CEC0FF012002B50FD0B040A0B
:101BC000D8A4120057EC0CF0120000016A51000179
:101BD0006B11D8B425D06AC0D9FF6BC0DAFF000101
:101BE000DFBE12001DD001C57CF000017D6BFBEC57
:101BF0000FF002C57CF000017D6BD5EC0FF003C542
:101C000076F004C577F076C078F077C079F0780E7A
:101C100000017C6F000E00017D6F7EEC11F005D09D
:101C200005010051540AD8B4DED7000E00017C6FC4
:101C3000000E00017D6F050E00017E6F400E000159
:101C40007F6F010E5DEC0AF07CC06AF07DC06BF026
:101C50001200000E286E000E206E000E1E6E000E8A
:101C60001F6E000E1B6E000E266E0FC0D9FF10C037
:101C7000DAFF7F0EDF16040E0F1A0FC0D9FF10C057
:101C8000DAFF7F0EDF16040E0F1A19C0D9FF1AC033
:101C9000DAFF7F0EDF16000E0C6E000E0E6E000EC9
:101CA0000D6E000E046E000E066E000E056E83ECC7
:101CB00009F0000E396E030E386E000E3A6E000EFB
:101CC0003B6E000E3D6E000E3C6EE0EC0EF09DECA7
:101CD00008F012000001806F30D09268000E896E0B
:101CE0009368000E8A6E9394020E00017C6F000EC2
:101CF00000017D6F010E4CEC0FF0F1EC10F0000EC6
:101D00000001816F090E0001816501D00BD0820EA8
:101D100000017F6FDE0EE82EFED77F2FFCD700017B
:101D2000812BF0D78A84820E00017F6FDE0EE82EB1
:101D3000FED77F2FFCD78A94120000018051000A41
:101D4000D8B4CBD7010AD8B41200030A1200060097
:101D5000E9CF4AF0EACF4BF0E1CF4CF0E2CF4DF0C3
:101D6000D9CF4EF0DACF4FF0F3CF50F0F4CF51F09F
:101D7000F6CF52F0F7CF53F0F8CF54F0F5CF55F03F
:101D8000F1EC06F055C0F5FF54C0F8FF53C0F7FF63
:101D900052C0F6FF51C0F4FF50C0F3FF4FC0DAFF4E
:101DA0004EC0D9FF4DC0E2FF4CC0E1FF4BC0EAFF7F
:101DB0004AC0E9FF49C0FBFF48C0FAFF5692110034
:101DC0000ED0010E18EC0FF01200020E18EC0FF0FE
:101DD0001200BCEC10F01200F0EC09F0120038C058
:101DE0003EF039C03FF03F50000AD8B404D07F0A1B
:101DF000D8A412001AD03E50010AD8B4EAD7030A78
:101E0000D8B41200010AD8B4E7D7060AD8B4120031
:101E1000770AD8B41200010AD8B41200070AD8B45D
:101E2000D4D7010AD8A41200CCD73E50FF0A120022
:101E3000306E29D09268000E896E9368000E8A6E0B
:101E40009394020E2C6E000E2D6E010EAAEC0FF074
:101E50003BEC11F0000E316E090E316401D009D057
:101E6000820E2F6EDE0EE82EFED72F2EFCD7312AE3
:101E7000F3D78A84820E2F6EDE0EE82EFED72F2E29
:101E8000FCD78A9412003050000AD8B4D3D7010A84
:101E9000D8B41200030A120000017E6F3F0EC7166D
:101EA000000EC66E00017E51C61200017D51C712A0
:101EB00005D0C78C14D0C78CC68811D000017C51C6
:101EC000000AD8B4F6D7020AD8B4F5D7010AD8B4B4
:101ED000F3D705D0928A93820BD0939209D0000158
:101EE0007E51040AD8B4F6D7010AD8B4F4D7F5D78E
:101EF0009380949EC68A1200020E2618D8A403D09E
:101F000017EC08F01200000E266E1B50D8A41FD04C
:101F100020EE01F01950D9261A50DA22080EDF6E91
:101F200020EE02F01950D9261A50DA22200EDE6E69
:101F3000040EDD6E19C0D9FF1AC0DAFF0C0EDF6E79
:101F400019C0D9FF1AC0DAFF000EDB8E1200000E96
:101F50001B6E12002E6E3F0EC716000EC66E2E5060
:101F6000C6122D50C71205D0C78C13D0C78CC68897
:101F700010D02C50000AD8B4F7D7020AD8B4F6D73C
:101F8000010AD8B4F4D705D0928A93820AD09392EA
:101F900008D02E50040AD8B4F7D7010AD8B4F5D720
:101FA000F6D79380949EC68A12007CC07EF0010E04
:101FB00000017E1700017E3BBA5000017E19EF0B35
:101FC0007E19BA6E0001D8907D337C337CC07EF0E0
:101FD000010E00017E1700017E3B7E47BA500001D2
:101FE0007E19DF0B7E19BA6E0001D8907D337C33E9
:101FF0007CC0BBFF12007CC07EF0010E00017E178A
:1020000000017E3BBD5000017E19EF0B7E19BD6EB5
:102010000001D8907D337C337CC07EF0010E00013E
:102020007E1700017E3B7E47BD5000017E19DF0B0D
:102030007E19BD6E0001D8907D337C337CC0BEFF1D
:10204000120070A01DD017C0D9FF18C0DAFF800E93
:10205000DE18D8A414D00FC0D9FF10C0DAFF840E48
:10206000DE18D8A40CD017C0D9FF18C0DAFF0C0EA8
:10207000DF6E17C0D9FF18C0DAFF000EDB8E70903C
:10208000689A12002EC034F02FC035F02CC032F008
:102090002DC033F00ED034C0D9FF35C0DAFF32C0C6
:1020A000E1FF33C0E2FFDFCFE7FF344A352A324A8F
:1020B000332A3006D8A031063028EDE13128D8B4D3
:1020C0001200E9D72CC02EF0010E2E162E3ABA506F
:1020D0002E18EF0B2E18BA6ED8902D322C322CC041
:1020E0002EF0010E2E162E3A2E46BA502E18DF0B69
:1020F0002E18BA6ED8902D322C322CC0BBFF120095
:102100002CC02EF0010E2E162E3ABD502E18EF0BBD
:102110002E18BD6ED8902D322C322CC02EF0010E10
:102120002E162E3A2E46BD502E18DF0B2E18BD6EE1
:10213000D8902D322C322CC0BEFF1200376E34A442
:1021400005D0000E2C6E375053EC0DF034A205D0A4
:10215000010E2C6E375053EC0DF03750010D700E00
:10216000F324356E0F0EF420366E35C0D9FF36C01D
:10217000DAFF34C0DFFF1200000E0001686F000EAE
:102180000001696F1E0E346E010E9EEC10F0000E01
:102190002C6E000E2D6E050E2E6E400E2F6E010E53
:1021A000FAEC0BF02CC06AF02DC06BF012007CC072
:1021B00082F07DC083F009D082C0D9FF83C0DAFFEE
:1021C0007EC0DFFF0001824B832B00018007D8A077
:1021D000810700018029F0E100018129D8B41200B3
:1021E000EBD7CB68000E00017D6F000E7C6FFBEC1F
:1021F0000FF0000E00017D6F000E7C6FD5EC0FF02C
:1022000094929494CA80CA82CA84BD86BD84BA86D8
:10221000BA841200000E1D6E000E396E740E386EF8
:10222000000E3A6E000E3B6E000E3D6E000E3C6ED0
:10223000E0EC0EF06D92699401D0689468B4FDD71B
:10224000000E256E12002150D8A41200000E6D6EF3
:10225000000E696E160E6F6E9F0E6B6E7B0E696EB2
:10226000D08EA28AA08AF28E01D06D866DA6FDD78F
:10227000010E216E1200CB68000E2D6E000E2C6E2A
:1022800080EC10F0000E2D6E000E2C6E62EC10F043
:1022900094929494CA80CA82CA84BD86BD84BA8648
:1022A000BA841200698468986D82010E1D6E000E5A
:1022B000256E000E396E750E386E000E3A6E000EE9
:1022C0003B6E000E3D6E000E3C6EE0EC0EF0120018
:1022D0002CC032F02DC033F008D032C0D9FF33C04B
:1022E000DAFF2EC0DFFF324A332A3006D8A031068B
:1022F0003028F3E13128D8B41200EFD70BD07CC0DE
:10230000D9FF7DC0DAFFDF50C96E00017C4B7D2B09
:10231000C7A0FED77CC0D9FF7DC0DAFFDF50D8B49C
:102320001200EDD700EE60F01C0EEE6AE806FDE14B
:1023300000EE01F02B0EEE6AE806FDE15690569293
:10234000000EF86E0001A5EF11F0000E6AEC0EF021
:10235000A2EC05F023EC11F0200E216003D0C9ECB3
:102360000AF0FAD76DB2F8D7E5EC0DF0F5D7010E0B
:1023700000016027000E6123622363231D50D8A44F
:0E2380001200252A2550D8A41200256812004C
:020000040020DA
:08000000FFFFFFFFFFFFFFFF00
:020000040030CA
:0E00000020023F1EFF8181FF0FC00FE00F4066
:00000001FF
