:040000000BEF00F012
:100008001482FACF01F0FBCF02F00DED00F0FDEF06
:1000180000F00600E9CF03F0EACF04F0E1CF05F0E5
:10002800E2CF06F0D9CF07F0DACF08F0F3CF09F026
:10003800F4CF0AF0F6CF0BF0F7CF0CF0F8CF0DF0B5
:10004800F5CF0EF00EC0F5FF0DC0F8FF0CC0F7FF9E
:100058000BC0F6FF0AC0F4FF09C0F3FF08C0DAFFBF
:1000680007C0D9FF06C0E2FF05C0E1FF04C0EAFFF0
:1000780003C0E9FF02C0FBFF01C0FAFF14921100A0
:10008800116E3F0EC716000EC66E1150C6121050E4
:10009800C71205D0C78C13D0C78CC68810D00F5094
:1000A800000AD8B4F7D7020AD8B4F6D7010AD8B4E8
:1000B800F4D705D0928A93820AD0939208D011502F
:1000C800040AD8B4F7D7010AD8B4F5D7F6D793807D
:1000D800949EC68A1200F1EC00F00F501010D8B4AC
:1000E800FAD706EC01F00F50126EF1EC00F00F5049
:1000F8001010D8B4FAD706EC01F00F50136E12C0E6
:100108000FF0106AACEC00F013C00FF0106A8EEC20
:1001180000F012000FC011F0010E1116113ABA507A
:100128001118EF0B1118BA6ED89010320F320FC099
:1001380011F0010E1116113A1146BA501118DF0BC1
:100148001118BA6ED89010320F320FC0BBFF1200D0
:100158000FC011F0010E1116113ABD501118EF0B16
:100168001118BD6ED89010320F320FC011F0010E69
:100178001116113A1146BD501118DF0B1118BD6E3A
:10018800D89010320F320FC0BEFF1200CB68000E9D
:10019800106E000E0F6EACEC00F0000E106E000E2C
:1001A8000F6E8EEC00F094929494CA80CA82CA842E
:1001B800BD86BD84BA86BA8412009268000E896E24
:1001C8009368000E8A6E020E0F6E000E106E050EFA
:1001D80044EC00F0CAEC00F01200C7A005D0000EF5
:1001E800106E010E0F6E1200000E106E000E0F6ED4
:1001F8001200136A126A14901492000EF86E00012D
:100208000DEF01F0C9CF11F09E9611C00FF0106AE2
:0C0218001200E1EC00F06FEC00F0FDD7EC
:020000040020DA
:08000000FFFFFFFFFFFFFFFF00
:020000040030CA
:0E00000020023F1EFF8181FF0FC00FE00F4066
:00000001FF
