:040000000BEF00F012
:100008001882FACF01F0FBCF02F00DED00F01EEFE1
:1000180001F00600E9CF03F0EACF04F0E1CF05F0E4
:10002800E2CF06F0D9CF07F0DACF08F0F3CF09F026
:10003800F4CF0AF0F6CF0BF0F7CF0CF0F8CF0DF0B5
:10004800F5CF0EF00EC0F5FF0DC0F8FF0CC0F7FF9E
:100058000BC0F6FF0AC0F4FF09C0F3FF08C0DAFFBF
:1000680007C0D9FF06C0E2FF05C0E1FF04C0EAFFF0
:1000780003C0E9FF02C0FBFF01C0FAFF189211009C
:10008800116E3F0EC716000EC66E1150C6121050E4
:10009800C71205D0C78C13D0C78CC68810D00F5094
:1000A800000AD8B4F7D7020AD8B4F6D7010AD8B4E8
:1000B800F4D705D0928A93820AD0939208D011502F
:1000C800040AD8B4F7D7010AD8B4F5D7F6D793807D
:1000D800949EC68A120012EC01F00F501010D8B48A
:1000E800FAD72CEC01F0166E12EC01F00F5010103C
:1000F800D8B4FAD72CEC01F0176E16C012F0136AB8
:1001080017C014F0156A12C00FF013C010F0B2EC4B
:1001180000F014C00FF015C010F094EC00F01200BD
:100128000FC011F0010E1116113ABA501118EF0B49
:100138001118BA6ED89010320F320FC011F0010E9C
:100148001116113A1146BA501118DF0B1118BA6E70
:10015800D89010320F320FC0BBFF12000FC011F041
:10016800010E1116113ABD501118EF0B1118BD6E82
:10017800D89010320F320FC011F0010E1116113A3B
:100188001146BD501118DF0B1118BD6ED8901032F2
:100198000F320FC0BEFF12000F6E08D093901200EE
:1001A8009394120093941200939612000F50000A31
:1001B800D8B41200010AD8B4F1D7030AD8B4F0D7DA
:1001C800010AD8B4EFD7070AD8A41200EDD7CB6834
:1001D800000E106E000E0F6EB2EC00F0000E106EE6
:1001E800000E0F6E94EC00F094929494CA80CA8228
:1001F800CA84BD86BD84BA86BA841200010ED0ECCA
:1002080000F0020ED0EC00F0020E0F6E000E106E21
:10021800050E44EC00F0EBEC00F01200C7A005D08E
:10022800000E106E010E0F6E1200000E106E000E02
:100238000F6E1200176A166A18901892000EF86E60
:10024800000127EF01F002EC01F06FEC00F0FDD7A0
:0A025800C9CF0FF09E960F50120060
:020000040020DA
:08000000FFFFFFFFFFFFFFFF00
:020000040030CA
:0E00000020023F1EFF8181FF0FC00FE00F4066
:00000001FF
