:040000000BEF00F012
:100008001982FACF01F0FBCF02F00DED00F02EEFD0
:1000180001F00600E9CF03F0EACF04F0E1CF05F0E4
:10002800E2CF06F0D9CF07F0DACF08F0F3CF09F026
:10003800F4CF0AF0F6CF0BF0F7CF0CF0F8CF0DF0B5
:10004800F5CF0EF00EC0F5FF0DC0F8FF0CC0F7FF9E
:100058000BC0F6FF0AC0F4FF09C0F3FF08C0DAFFBF
:1000680007C0D9FF06C0E2FF05C0E1FF04C0EAFFF0
:1000780003C0E9FF02C0FBFF01C0FAFF199211009B
:10008800116E3F0EC716000EC66E1150C6121050E4
:10009800C71205D0C78C13D0C78CC68810D00F5094
:1000A800000AD8B4F7D7020AD8B4F6D7010AD8B4E8
:1000B800F4D705D0928A93820AD0939208D011502F
:1000C800040AD8B4F7D7010AD8B4F5D7F6D793807D
:1000D800949EC68A12001BEC01F00F501010D8B481
:1000E800FAD7170E106E000E116E020E126E0CEC7F
:1000F80001F017C013F0146A18C015F0166A13C07F
:100108000FF014C010F0AEEC00F015C00FF016C0E0
:1001180010F090EC00F012000FC011F0010E111653
:10012800113ABA501118EF0B1118BA6ED890103254
:100138000F320FC011F0010E1116113A1146BA50C4
:100148001118DF0B1118BA6ED89010320F320FC089
:10015800BBFF12000FC011F0010E1116113ABD506D
:100168001118EF0B1118BD6ED89010320F320FC056
:1001780011F0010E1116113A1146BD501118DF0B7E
:100188001118BD6ED89010320F320FC0BEFF12008A
:100198000F6E08D09390120093941200939412005B
:1001A800939612000F50000AD8B41200010AD8B46E
:1001B800F1D7030AD8B4F0D7010AD8B4EFD7070AA1
:1001C800D8A41200EDD7CB68000E106E0F68AEEC05
:1001D80000F0000E106E0F6890EC00F0949294946A
:1001E800CA80CA82CA84BD86BD84BA86BA8412000F
:1001F800010ECCEC00F0020ECCEC00F0020E0F6EFB
:10020800000E106E040E44EC00F0E7EC00F0120053
:100218000AD025EC01F010C0D9FF11C0DAFFDF6E5B
:10022800104A112A12061250D8B41200F2D7C7A0E9
:1002380003D0116A112A01D0116A11500F6E106A89
:100248001200C9CF0FF09E96000EC96E9EA6FED76B
:10025800C950120019901992000EF86E000135EF7E
:0C02680001F0FCEC00F06FEC00F0FDD7A2
:020000040020DA
:08000000FFFFFFFFFFFFFFFF00
:020000040030CA
:0E00000020023F1EFF8181FF0FC00FE00F4066
:00000001FF
